:020000040800F2
:1000000000000820E9090008E93B0008EB3B000874
:10001000ED3B0008EF3B0008F13B0008000000004A
:10002000000000000000000000000000518A0008ED
:10003000F33B000800000000F18A0008558B00081F
:10004000390A0008390A0008390A0008390A000884
:10005000390A0008390A0008390A0008390A000874
:10006000390A0008390A0008390A0008390A000864
:10007000390A0008390A0008390A0008390A000854
:10008000390A0008390A0008390A0008390A000844
:10009000390A0008390A0008390A0008390A000834
:1000A000390A0008390A0008390A0008390A000824
:1000B000390A0008390A0008390A0008390A000814
:1000C000390A0008390A0008390A0008390A000804
:1000D000390A0008390A0008390A0008390A0008F4
:1000E000390A0008390A0008390A0008390A0008E4
:1000F000390A0008390A0008390A0008390A0008D4
:10010000390A0008390A0008390A0008390A0008C3
:10011000390A0008390A0008F53B0008390A0008C6
:10012000390A0008390A0008390A0008390A0008A3
:10013000390A0008390A0008390A0008390A000893
:10014000390A0008390A0008390A0008390A000883
:10015000390A0008390A0008390A0008390A000873
:10016000390A0008390A0008390A0008390A000863
:10017000390A0008390A0008390A0008000000009E
:10018000390A0008390A0008390A0008390A000843
:10019000390A0008390A0008390A0008390A000833
:1001A000013C0008390A00080D3C0008390A000823
:1001B000390A0008390A0008390A0008193C000801
:1001C000390A0008390A0008253C0008390A0008E5
:1001D000390A0008390A0008390A0008390A0008F3
:1001E000390A0008390A0008390A0008390A0008E3
:0801F000390A0008390A000871
:1002000010B5054C237833B9044B13B10448AFF350
:1002100000800123237010BD400300200000000077
:100220004C18030808B5034B1BB103490348AFF34F
:10023000008008BD00000000440300204C180308A3
:1002400001F0FF01102A2BDB10F0070F08D010F887
:10025000013B013A8B422DD010F0070F42B3F6D18B
:10026000F0B441EA012141EA014122F007047FF0A4
:1002700000070023F0E80256083C85EA010586EAFB
:10028000010685FA47F5A3FA87F586FA47F6A5FA37
:1002900087F68EB9EED1F0BC01F0FF0102F0070243
:1002A00032B110F8013B013A83EA010313B1F8D1EE
:1002B0000020704701387047002D06BF35460338CF
:1002C000073815F0010F07D1013015F4807F02BF08
:1002D000013015F4C03F0130F0BC0138704700BF59
:1002E00081F0004102E000BF83F0004330B54FEAE7
:1002F00041044FEA430594EA050F08BF90EA020F54
:100300001FBF54EA000C55EA020C7FEA645C7FEAE6
:10031000655C00F0E2804FEA5454D4EB5555B8BF09
:100320006D420CDD2C4480EA020281EA030382EA7A
:10033000000083EA010180EA020281EA0303362D0C
:1003400088BF30BD11F0004F4FEA01314FF4801CDF
:100350004CEA113102D0404261EB410113F0004FF1
:100360004FEA03334CEA133302D0524263EB4303A8
:1003700094EA050F00F0A780A4F10104D5F1200E46
:100380000DDB02FA0EFC22FA05F2801841F10001A1
:1003900003FA0EF2801843FA05F359410EE0A5F175
:1003A00020050EF1200E012A03FA0EFC28BF4CF0A6
:1003B000020C43FA05F3C01851EBE37101F000455C
:1003C00007D54FF0000EDCF1000C7EEB00006EEB69
:1003D0000101B1F5801F1BD3B1F5001F0CD34908F3
:1003E0005FEA30004FEA3C0C04F101044FEA44524A
:1003F00012F5800F80F09A80BCF1004F08BF5FEAD1
:10040000500C50F1000041EB045141EA050130BDB0
:100410005FEA4C0C404141EB0101013C28BFB1F5C2
:10042000801FE9D291F0000F04BF01460020B1FA0D
:1004300081F308BF2033A3F10B03B3F120020CDAE0
:100440000C3208DD02F1140CC2F10C0201FA0CF0BE
:1004500021FA02F10CE002F11402D8BFC2F1200C23
:1004600001FA02F120FA0CFCDCBF41EA0C019040D9
:10047000E41AA2BF01EB0451294330BD6FEA040422
:100480001F3C1CDA0C340EDC04F11404C4F120020D
:1004900020FA04F001FA02F340EA030021FA04F31F
:1004A00045EA030130BDC4F10C04C4F1200220FA76
:1004B00002F001FA04F340EA0300294630BD21FAB4
:1004C00004F0294630BD94F0000F83F4801306BF7A
:1004D00081F480110134013D4EE77FEA645C18BF6E
:1004E0007FEA655C29D094EA050F08BF90EA020F05
:1004F00005D054EA000C04BF1946104630BD91EAFD
:10050000030F1EBF0021002030BD5FEA545C05D1FF
:100510004000494128BF41F0004130BD14F580043E
:100520003CBF01F5801130BD01F0004545F0FE41B2
:1005300041F470014FF0000030BD7FEA645C1ABFE7
:10054000194610467FEA655C1CBF0B46024650EA1E
:10055000013406BF52EA033591EA030F41F400214A
:1005600030BD00BF90F0000F04BF0021704730B5D0
:100570004FF4806404F132044FF000054FF00001A5
:1005800050E700BF90F0000F04BF0021704730B566
:100590004FF4806404F1320410F0004548BF40423B
:1005A0004FF000013EE700BF42004FEAE2014FEA90
:1005B00031014FEA02701FBF12F07F4393F07F4F6B
:1005C00081F06051704732F07F4208BF704793F06E
:1005D0007F4F04BF41F40021704730B54FF4607481
:1005E00001F0004521F000411CE700BF50EA010284
:1005F00008BF704730B54FF000050AE050EA01022D
:1006000008BF704730B511F0004502D5404261EB9C
:1006100041014FF4806404F132045FEA915C3FF4DD
:10062000D8AE4FF003025FEADC0C18BF03325FEA7A
:10063000DC0C18BF033202EBDC02C2F1200300FA2B
:1006400003FC20FA02F001FA03FE40EA0E0021FA50
:1006500002F11444BDE600BF7BB972B90029BEBFE8
:1006600000204FF0004106E008BF00281CBF6FF0DB
:1006700000414FF0FF3000F0B5B9ADF1080C6DE965
:1006800004CE002909DB002B1ADB00F04DF8DDF861
:1006900004E0DDE9022304B07047404261EB410110
:1006A000002B1BDB00F040F8DDF804E0DDE902235D
:1006B00004B0404261EB4101524263EB4303704797
:1006C000524263EB430300F02FF8DDF804E0DDE96C
:1006D000022304B0404261EB41017047524263EB98
:1006E000430300F021F8DDF804E0DDE9022304B063
:1006F000524263EB4303704753B94AB9002908BF1C
:1007000000281CBF4FF0FF314FF0FF3000F06AB9F6
:10071000ADF1080C6DE904CE00F006F8DDF804E058
:10072000DDE9022304B070472DE9F047089D0C462F
:10073000002B4ED194468C458646B2FA82F262D99D
:100740004AB1C2F12003914020FA03F30CFA02FCF3
:10075000194300FA02FE4FEA1C471FFA8CF6B1FB60
:10076000F7F44FEA1E4307FB141143EA014304FB6D
:1007700006F199420AD91CEB030304F1FF3080F023
:100780001281994240F20F81023C6344591A1FFAC8
:100790008EF3B1FBF7F007FB101143EA014300FBB6
:1007A00006F69E420AD91CEB030300F1FF3180F0EC
:1007B000FC809E4240F2F980634402389B1B40EA71
:1007C000044000211DB1D3400022C5E90032BDE83C
:1007D000F0878B4205D90DB1C5E90001002108461B
:1007E000F5E7B3FA83F1002946D1A34202D3904240
:1007F000C0F0F080861A64EB03030120002DE6D0E0
:10080000C5E90063E3E7002A40F09080A1EB0C0407
:100810004FEA1C481FFA8CF70121B4FBF8F64FEAA7
:100820001E4308FB164443EA044307FB06F09842C4
:1008300008D91CEB030306F1FF3402D2984200F200
:10084000CD8026461C1A1FFA8EF3B4FBF8F008FB85
:10085000104443EA044300FB07F79F4208D91CEB0E
:10086000030300F1FF3402D29F4200F2B080204621
:10087000DB1B40EA0640A5E7C1F120068B4022FAC7
:1008800006F71F4320FA06FC04FA01F343EA0C03BF
:10089000F44000FA01F8380C4FEA1349B4FBF0FEBB
:1008A0001FFA87FC00FB1E4449EA04440EFB0CF9C6
:1008B000A14502FA01F20AD93C190EF1FF3A80F083
:1008C0008480A14540F28180AEF1020E3C44A4EB4D
:1008D00009041FFA83F9B4FBF0F300FB134449EA5F
:1008E000044403FB0CFCA44507D93C1903F1FF3079
:1008F00067D2A44565D9023B3C4443EA0E40A0FBC5
:100900000293A4EB0C049C42CE469C4651D34ED09D
:1009100055B1B8EB0E0364EB0C0404FA06F6CB40B9
:100920001E43CC40C5E90064002150E7C2F120031A
:1009300020FA03F10CFA02FC24FA03F394400C436E
:100940004FEA1C4800FA02FE1FFA8CF7B3FBF8F0DE
:1009500008FB1031230C43EA014300FB07F19942E5
:1009600008D91CEB030300F1FF362CD299422AD997
:10097000023863445B1AA4B2B3FBF8F108FB1133ED
:1009800044EA034401FB07F3A34208D91CEB040427
:1009900001F1FF3613D2A34211D902396444E41A9B
:1009A00041EA004139E70446F0E6084606E7C84553
:1009B000AED2B9EB020E63EB070C0138A8E7314663
:1009C000EDE7034699E73046D4E7D6467FE7634430
:1009D00002384DE70646234608460FE7023E6344C9
:1009E00030E700BF704700BFDFF834D0002103E0DC
:1009F0000C4B5B58435004310B480C4B42189A4245
:100A0000F6D30B4A02E0002342F8043B094B9A421A
:100A1000F9D304F081FB30F095F802F02BF9704720
:100A200000000820506C030800000020280100206E
:100A3000400300207C790120FEE77047704708B52D
:100A400001F0A6FCBDE8084001F02ABC01F0A2BC00
:100A5000174B1A6B42F0010210B51A6386B01B6B7C
:100A600003F001030093009B59B90123039111483E
:100A7000CDE90131022301A9049305F0DBF906B0A9
:100A800010BD0129FBD100240223019101A90948CD
:100A9000CDE903434FF48813029305F0CBF92246C6
:100AA0000F21062004F0A6FB062004F0D5FBE6E7A4
:100AB0000038024000000240002108B50846FFF758
:100AC000C7FF08BD0121024808B505F031FB08BD8C
:100AD0000000024008B50020FFF7F4FF08BD4068A1
:100AE00070474160704700004FF0E022D2F8FC3DB3
:100AF00043F08073C2F8FC3D054B064AD3F8B01FA3
:100B00000A43C3F8B02F1A6842F001021A60704716
:100B1000001000E055CEACC5521A02EB5302B2FBF6
:100B2000F3F07047014B5868704700BF001000E0B9
:100B3000704710B504460C212FF016F9204610BD61
:100B4000036810B51B69044631B19847A268636811
:100B50009B1A0344636010BD9847A060FBE7704791
:100B60007047000008B5FFF7A7FF024B00221A608C
:100B700008BD00BF5C03002070B50D46FFF7AAFF5B
:100B80000B4AC4B293785678117813F00100D370F1
:100B90009670517014700AD016F0010007D011F051
:100BA000010004D0E30756BF01200020287070BD6B
:100BB0005C03002010B5044604212FF0D5F8204630
:100BC00010BD704710B5044604212FF0CDF8204623
:100BD00010BD70477FB501238DF817204FF47A724E
:100BE000CDE901320DF1170200920A46014606488E
:100BF00005F054FC20B1044805F036FC02F018F86A
:100C000007B05DF804FB00BF6C2400207FB5002313
:100C10000A464FF47A718DF817300123CDE901317E
:100C20000DF1170100910146064805F011FD20B1B4
:100C3000044805F019FC01F0FBFF9DF8170007B010
:100C40005DF804FB6C2400201FB54FF47A74009209
:100C50000A4601460748CDE90134012305F0F8FCB6
:100C6000044620B1034805F0FFFB01F0E1FF2046F8
:100C700004B010BD6C240020F8B5134D0646134C8B
:100C80000F462B68207898476B6854209847C0B26D
:100C9000112809D06B68702098477023C0B2237068
:100CA000112803D00320F8BD54232370084BBE4203
:100CB0002CBF0C26012620781E70AB689847207840
:100CC000EB6898470020EEE7100000207103002039
:100CD0007203002008B54FF4F0714FF44870FFF72D
:100CE000CBFF074B10B901221A7008BD1B78002BEF
:100CF000FBD1044B6A21044A04482FF0ADFB00BF2E
:100D000070030020FC1803080F19030839190308A1
:100D10002DE9F04F344A0546DFF8DCA085B01078A5
:100D2000DAF810309847287050B1304EA946304F4D
:100D30000DF10C0B02AC4FF000082B78984503D353
:100D4000002005B0BDE8F08F27485A462146DAF862
:100D50001430007808F101089847264BB446BE4687
:100D60001B7804360437190741BF2288BBF80010EE
:100D7000ABF8002021809A0741BF2288C2F5477254
:100D8000033222805B0756F8042C48BFBBF80030C2
:100D900034F8020B42BFC3F5EF730133ABF80030F8
:100DA00093B290423BF8021B8CBFC31A1B1A9BB232
:100DB000019357F8043C9AB29942019B8CBF8A1A5E
:100DC000521A92B21344052BC8BF46F8040CDCF843
:100DD0000030C8BF47F8041C29F8023FDEF8003095
:100DE000A9F80430A9E700BF7103002068030020C0
:100DF0006003002072030020100000207FB50B4B21
:100E00000E4615461C781CB90024204604B070BD5F
:100E100001A8FFF77DFF9DF80430002BF4D0BDF84A
:100E200006303360BDF80A302B60EEE77003002017
:100E3000032823D8DFE800F0020B121A104B4021E0
:100E40001A68B2FA82F252090E4805F077B90C4BD3
:100E500080215A68B2FA82F25209F5E7084B022162
:100E600009489A68B2FA82F25209EEE7044B40212F
:100E70000648DA68B2FA82F25209E6E7704700BF24
:100E800074030020000802400024024000140240C5
:100E9000032823D8DFE800F0020B121A104B402180
:100EA0001A68003A18BF01220E4805F047B90C4BEA
:100EB00080215A68003A18BF0122F5E7084B022149
:100EC00009489A68003A18BF0122EEE7044B402116
:100ED0000648DA68003A18BF0122E6E7704700BF0B
:100EE0007403002000080240002402400014024065
:100EF00003280FD8DFE800F00206080B402106485F
:100F000005F021B98021FAE702210448F8E74021E1
:100F10000348F5E7704700BF000802400024024084
:100F20000014024008B5032813D8DFE800F0020AD5
:100F30000C0F4021084805F0FBF8431E5842584169
:100F400008BD8021F6E702210448F4E74021044867
:100F5000F1E70020F1E700BF000802400024024052
:100F60000014024070B5084D00240126E0B2FFF7DE
:100F7000D9FF18B12B68012B18BF2E60013404353E
:100F8000052CF3D170BD00BF74030020012380F84D
:100F9000781080F87930704700207047416400393C
:100FA000024B18BF01211970704700BF3B6C012034
:100FB00000207047836B0BB10846184770474FF607
:100FC000FF707047406803689B691847014B1868B9
:100FD000704700BF9803002070470000F0B4002362
:100FE000104CC4F88430BFF34F8FD4F8803043F6F0
:100FF000E076C3F3C905C3F34E335B0103EA060C85
:101000002A464CEA8277013AC4F87472F9D2203B3E
:1010100013F1200FF2D1BFF34F8FBFF36F8FF0BCEE
:1010200001F0CEBA00ED00E008B501F049FA024B3C
:101030000422DA6008BD00BF00E100E010B50446FC
:1010400001F0CEFB94F84B3013B1024B01221A7021
:1010500010BD00BF04000020014B196001F039BA37
:101060009803002010B5044617F00CFC23682046B6
:10107000D3F8AC30BDE81040184716F06FBE10B57D
:1010800004467C212EF070FE204610BD024B00224B
:101090001A7016F09FBE00BF0400002038B5044649
:1010A000074D01F065FA0023284684F84A30FFF71F
:1010B0001BFD0123256184F87030024B636138BD4C
:1010C0008C030020880300200368044607B5D3F88A
:1010D00080309847236820469B6F984700F084FA39
:1010E000236820461B6F98470021292315220548B5
:1010F000009104F018FE00F077FA236820461B6F79
:101100009847F8E7C024002008B501F0D1F9002283
:1011100007215A2004F06EF8002207216220BDE862
:10112000084004F067B8000090F834100D4B10B57B
:1011300090F878401A788C4209D03AB90A490B4A9B
:1011400008881488108001220C801A7010BD002AB3
:10115000FCD0064A0449148808880C8010800022BC
:10116000F3E700BF346C0120326C0120306C0120A9
:1011700008B5094B1B888B4203D8084B1B88934248
:1011800005D9074B9E21074A07482FF065F9074B01
:101190001980074B1A8008BD306C0120326C012089
:1011A000A4190308071A03084A1A0308366C012019
:1011B000386C012008B501F045FB044B0422C3F84C
:1011C0008C20BFF34F8FBFF36F8F08BD00E100E0AD
:1011D000034690F87A0018B1586803681B681847EE
:1011E0007047000070B50D4619460B4B1D6035B9B0
:1011F0000A4B40F2D2210A4A0A482FF02DF9C0E9E1
:101200000F52003A084B18BF01221A700368BDE85C
:101210007040D3F88C301847980300208F1A0308C9
:10122000C71A03084A1A03083A6C0120C0E90112E0
:10123000C3604FF480720023C0E912231C4A038567
:1012400080F82A30C362038680F85830436680F8FD
:1012500070304367C0E91A23164A70B5C0E90433F9
:10126000BDF81050BDF81460C0E90633C0E908337A
:10127000C0E90E33C0E91033C0E91433C0E91733B5
:101280008267B5420C4A10600C4A15800C4A1580E2
:1012900028BF00250B4A38BF012516800A4A80F86E
:1012A00034501680094A1370094B036070BD00BFAB
:1012B00001000001000001013C6C0120306C0120A4
:1012C000366C0120326C0120386C0120346C012016
:1012D000201B030803F06ABF0128034607B50AD89C
:1012E0004B781522084800930B78002104F01BFD71
:1012F00003B05DF804FB01910A5C002102480092F2
:10130000392204F021FDF3E7C02400200C4B012218
:1013100013B51A70DF220B4C00215A703922019349
:10132000442320460093022304F00EFD00213523C0
:1013300015222046009104F0F6FC02B010BD00BF5B
:1013400084030020C024002010B50446FFF7DEFF10
:101350000F4B022220461B68C3F810240122C3F859
:101360001024D3F8082442F00102C3F80824D3F86B
:10137000082442F00202C3F80824064B1A68536B93
:1013800043F00303BDE81040536301F0A1B800BF70
:10139000C0240020C4230020F0B589B0294B0646A4
:1013A00004AA03F1100715461868083353F8041C03
:1013B0001446BB4203C42246F6D1234C05EB8605F6
:1013C0002A233922019500210093204604234FF45B
:1013D000C87504F0B9FC236800201C490290D3F8BA
:1013E0000424096822F00802C3F80424D3F8042472
:1013F00002F008020292029A154A126805FB0211D5
:10140000144AC2F8AC101449116101F10111516183
:101410001249C2F888101249C2F8B0100121516275
:1014200003902046D3F8042442F00802C3F80424B1
:10143000D3F8043403F008030393039B04F063FC24
:1014400009B0F0BD68180308C024002098030020EC
:101450009C03002000680140E201CA000300CA00AA
:101460009301400638B5124C226892F86A30013375
:1014700082F86A3000F0ACF80E4B1A780E4B1AB9AD
:101480002268197882F84A101B787BB10B4D2878B6
:1014900060B9FFF7CDFC206808B117F0F3F9084BED
:1014A00000201860FFF778FF01232B7038BD00BFC4
:1014B0003C6C01203A6C012004000020A0030020B5
:1014C0009C03002008B50E4B1868022806DC01308A
:1014D0001860C0B2BDE80840FFF75EBF094B0022AC
:1014E0001A70094B186828B1084B1B7813B90368A8
:1014F0001B6A98470020BDE80840FFF7C9BC00BF41
:101500009C030020A00300203C6C01203A6C0120C9
:10151000014608B5034B186801B1012117F0CCF959
:10152000012008BD3C6C0120054B002205485A6093
:101530009A60054A1A60054B0360FFF713BB00BFB2
:101540008C03002088030020C0180308E818030853
:101550000121002208B5084606F03EFF0A4B18603C
:1015600028B90A4B28210A4A0A482EF075FF0022A2
:101570000421012006F0FAFF074B186018B9074B49
:101580002C21034AF0E708BDA8030020F01B030844
:10159000391C0308681C0308A4030020BA1C0308B4
:1015A000024B4FF0FF31186806F06EBFA803002011
:1015B000014B186806F0A4BFA8030020024B0021CD
:1015C000186806F061BF00BFA8030020FFF7F0BF56
:1015D0000023034803491A46006807F00DB800BF0E
:1015E000A40300200800002013B50023074C01A924
:1015F0001A46206807F042F84FF0FF33002201A995
:10160000206807F03BF802B010BD00BFA403002023
:1016100003685B6C18470120704703689B6A184792
:10162000FEE700000E4B82B01A6B42F400021A6310
:101630001A6B02F400020192019A1A6942F4000244
:101640001A611A6922F400021A61064B064A9A616D
:10165000064ADA614FF08062054B9A6002B070472B
:1016600000380240DC240020FD1800082116000884
:1016700000E100E040F2EF3070470000054B4FF012
:1016800080620360044BC3F88820BFF34F8FBFF321
:101690006F8F70475C1E030800E100E010B5044640
:1016A0004FF45A61FFF7EAFF20462EF05DFB20461B
:1016B00010BD000008B50A2809D8DFE800F00610C0
:1016C0000E080808081010101000022008BD054B75
:1016D0009021054A05482EF0BFFE0020F6E70120C4
:1016E000F4E700BFFC1C0308171D0308621D030874
:1016F00038B50C46887FFFF7DDFF174BA58AE28AD5
:10170000586342EA054221695A64628BD963521BCD
:101710001A642568082D0ED19A611A6158620F4A21
:10172000207F42EA0062DA61E2681A620C4A59617B
:10173000D9601A6038BD0022D8611A61E1680A0ACE
:101740004809C1F3C40102F4784200F4FC6002438A
:101750000A439A63034AECE700B002400900010023
:10176000012302000123030008B50B280BD8DFE892
:1017700000F00612100A0A0A0A08080808080220DF
:1017800008BD0520FCE7054B6F21054A05482EF0F2
:1017900063FE0020F4E70120F2E700BFFC1C030811
:1017A000B21D0308621D03082DE9F04191F81D8068
:1017B0000C464046FFF7D8FFA77F05463846FFF79F
:1017C000D3FF06463846FFF775FFA18A628B434B6D
:1017D000521A1A649A61228B521A1A61E28A586369
:1017E00042EA014221695A646268D963DA6020687A
:1017F000802828D0227F0FD8202866D0402864D0A7
:1018000004281AD045EA0265344BB84545F4003542
:10181000DD6160D0324A44E0B0F5807F04D0B0F59D
:10182000007FEFD12F4800E02F4840EA0262DA61E2
:10183000E2681A625E62596132E045EA026242F48D
:101840000032DA61F6E7A068021DDA62227F45EA1B
:10185000026545F40035DD615E625961017841B190
:10186000012921D0214B4FF48D71214A21482EF0BE
:10187000F3FDDA69418822F47F42013922F0100237
:1018800042EA01220121DA61144BDA6942F02002B6
:10189000DA61DA699206FCD410229A600029B9D084
:1018A000154A1A60BDE8F081B2F1FF01DA6940889B
:1018B00022F47F4218BF0121013822F0100242EACF
:1018C000002242F01002DA61DEE745EA0262034BD1
:1018D00042F40032B5E742F20132E2E700B00240E2
:1018E00001230100090002000A000200FC1D030898
:1018F000161E0308621D030801230200024B1B6829
:10190000586803685B6918473C6C012070B5044651
:101910000A4B0C30002625466022606026726672F3
:1019200045F8203B294617F01DF904F55A63EE608F
:1019300024359D42FBD1204670BD00BF5C1E0308CC
:10194000034B1A68D207FCD423229A60704700BF69
:1019500000B00240094B5A69D2030AD5BFF34F8F3A
:1019600008440029A0EB010204DCBFF34F8FBFF352
:101970006F8F70472039C3F86822F2E700ED00E06E
:1019800030B5104C2568ED07FCD423250904FF2B46
:10199000A56041F001014FF0020565636164E063F9
:1019A0000AD00949656241EA0363E361074B226299
:1019B0006061E060236030BDE561039BA363044B7D
:1019C000F8E700BF00B0024009000100010002007A
:1019D0000100030030B50F4C2568ED07FCD423252A
:1019E0001204FF2BA56042F001024FF0020565636F
:1019F0006264E063E16008D01B0643F00213E36118
:101A0000054B65626061236030BD044BE3610123D7
:101A1000F9E700BF00B0024001000200020002FF2F
:101A200030B50B4C2568ED07FCD4232512041B06AA
:101A3000A56042F00102022543F40033656362644D
:101A4000E063E160E361034B65626061236030BD88
:101A500000B00240010002004069704790F8440065
:101A60007047036B23B9C06A003818BF0120704764
:101A70000120704780687047043010B50C460FC8CD
:101A800084E80F0010BD704708B5034A40F21221E8
:101A9000024B03482EF0E0FCA41E03083B3C030865
:101AA000FF1E030810B5044648212EF05DF92046BC
:101AB00010BD00002DE9F0431C46436BADF51F7DC2
:101AC00005460E461746002B37D0002203A8DFF844
:101AD000A890CDE901320EF08DFE4FF4F472502142
:101AE000249024A808F053FE3A46314624A809F071
:101AF000A7FD012124A808F045FF022324A88DF8A2
:101B0000D83008F0E0FFBDF898322B9ABDF89C62FF
:101B10009342A89F28BF1346419A964203EB43087D
:101B2000A7EB430728BF1646479B9E4209D824A827
:101B300008F04AFF24A808F077FE0DF51F7DBDE8E8
:101B4000F083012201A924A809F006F86B6B03EBCE
:101B50000800984201D83C44E6E759789A78C900D1
:101B600009EA022201F4FC610A4313F8031B42EA6A
:101B7000D10224F8022BECE700F8FFFF0A4A0260CA
:101B80000022C0E90522C0E90722C0E90922C0E914
:101B90000B22C0E90D12C0E90F2280F84420C0E9F1
:101BA0000322C0E901227047E421030810B40C4667
:101BB00011461A46036B3BB1036C806BE41A204458
:101BC0005DF8044B2EF00CBFC06AF8E7036B10B54C
:101BD00073B1036C826BC91A5318525C98785C78A5
:101BE0000004DB7840EA0420104340EA036010BDA3
:101BF000C36A5858FBE7036B43B1036CC91A836B84
:101C00005A18585C527840EA02207047C36A585A02
:101C10007047000070B50446006B0D461646D8B1FB
:101C2000E36B934208D209230D4A65210D4884F8DD
:101C300044300D4B2EF010FC0368DB689847206B96
:101C40003246A16B03681B69984710B90D2384F8CD
:101C50004430A06B256470BDE06A0844FBE700BF18
:101C60006E1F0308FF1E03085B1F03082DE9F843DE
:101C7000436904462BB9234BAA21234A23482EF05B
:101C8000EBFB08228169FFF7C5FFA16943F230062B
:101C900046F2643704312046FFF798FFA3691844E1
:101CA000A36A00F108029A4206D30123002063616F
:101CB000236AA361BDE8F883636909300822013310
:101CC00020F0010120466361A161FFF7A3FFD4F872
:101CD000189020464946FFF78EFF09F10201804621
:101CE0002046FFF788FF09F1040105462046FFF76B
:101CF0006DFFB045D2D1BD42D0D10028CED0012059
:101D0000D8E700BFB01F0308F91F0308FF1E030830
:101D10002DE9F04F0446ADF51F7D8A4616468169D0
:101D200008229846FFF776FFA7692046391DFFF77E
:101D30004DFF07F10801024605462046FFF76AFFFE
:101D4000636B074633B93C4B40F2AB113B4A3C480E
:101D50002EF082FB002203A8CDE901320EF04AFDED
:101D60004FF4F4725021249024A808F010FD2A4664
:101D7000394624A809F064FC012124A808F002FED9
:101D8000022324A88DF8D83008F09DFEBAF902503D
:101D9000479BAB4229D3BAF900904FEA4808BAF8FA
:101DA00004702B9B08FB05664F44BAF80250DFF81D
:101DB00094B03FB29F4228BF1F46BAF8063009EBE5
:101DC000490A1D44419B2DB29D4228BF1D46479B99
:101DD000AB4210D324A808F0F7FD24A808F024FD96
:101DE00001200DF51F7DBDE8F08F012201A924A877
:101DF00008F0B2FECCE7012201A924A808F0ACFE4D
:101E0000626B49465244B94202F1030201D346448F
:101E1000DDE712F8020C12F8013CC0000BEA0323C4
:101E200000F4FC60034312F8030C43EAD00326F8E5
:101E300011300131E7E700BF2C200308822003089E
:101E4000FF1E030800F8FFFF0129036838BF0121C6
:101E5000DB6A70B50D4604469847A84204D2236851
:101E60002046DB6A984705466B1EE669102220462D
:101E700006EB031606F10801FFF7CCFE06F1100190
:101E80002046FFF7A3FE236A043B0344C4E905533D
:101E900070BD0000002148222DE9F0410446816117
:101EA00080F84410FFF7B6FEA6690423624A314663
:101EB0002046FFF77BFE40B10323604AF22184F8FD
:101EC00044305F4B5F482EF0C7FA06F10801042347
:101ED0005D4A2046A161FFF769FE30B10423574AED
:101EE000FA2184F84430594BECE706F10C01042345
:101EF000574A2046A161FFF759FE074638B105232E
:101F00004E4A40F2011184F84430524BDAE706F1B0
:101F100010012046FFF75AFE054620B94E4B40F20D
:101F20000711464ACEE706F1140804234B4A20461F
:101F30004146FFF73BFE002849D0062384F8443091
:101F40000423474A06F118012046FFF72FFE002818
:101F50003FD0072384F844304544424F0C222046AA
:101F60002946FFF757FE05F1080604233A462046A6
:101F70003146FFF71BFE94F84430002848D0002B70
:101F800048D1A36AAB4249D805F10C030435204679
:101F9000A3612946FFF71AFE3044294660622046B5
:101FA000FFF714FE0644042220463146FFF732FEB6
:101FB00004232D4A31462046FFF7F8FD002838D18A
:101FC0000123E6616361A3692362BDE8F081012713
:101FD000B6E7002FC0D006F120012046FFF7F6FD3E
:101FE0004FF47A7306F13001B0FBF3F060602046E5
:101FF000FFF7ECFD06F14001A0602046FFF7E6FD8B
:1020000006F14401E0602046FFF7E0FD2061A3E710
:10201000002BB9D00A2384F84430D6E7291D204686
:10202000FFF7D4FD85190C2220462946FFF7F2FD63
:1020300099E70B23EFE700BFDC200308FA20030831
:10204000E1200308FF1E0308272103082C210308B1
:1020500044210308492103085F2103086B21030879
:1020600070210308752103087A210308C0E90A21B9
:1020700000220263FFF70EBF10B500230446084696
:10208000E3620B6821639B689847A0622046BDE825
:102090001040FFF7FFBEF0B4069FBDF81050BDF82A
:1020A000146032B12BB10495CDE90567F0BCFFF7A0
:1020B00001BDF0BC704700002DE9F04F994643691F
:1020C00085B004460F4690462BB9294B7721294A03
:1020D00029482EF0C1F908228169FFF79BFDA66906
:1020E00020463146FFF787FDB11C83462046FFF7A7
:1020F00082FD311D82462046FFF768FD06F108018A
:10210000A36A054642189A4226D243F230039B4501
:1021100017D146F264339A4513D190B10246A161BA
:102120002046FFF777FD0E9B01462A462046CDF854
:102130000080CDE901933B46FFF7ADFF63690133B2
:102140006361A3692B4405B908330133626A23F044
:1021500001039342A36109D1012301206361236A32
:10216000A36180F0010005B0BDE8F08F0020F8E722
:10217000B01F03087F210308FF1E030801207047DA
:102180004020704700EB81100830704700EB811051
:1021900008307047012070474FF4887070474FF443
:1021A000887303FB0100083070474FF4887303FB0A
:1021B000010008307047012070471020704700EB85
:1021C00001100830704700EB0110083070470846D6
:1021D00002F0AEB8034B10B50446036015F014FBD3
:1021E000204610BD8C22030810B50446FFF7F2FF0D
:1021F000482120462DF0B8FD204610BD034B10B5F8
:102200000446036015F000FB204610BD5822030869
:1022100010B50446FFF7F2FF4FF48C7120462DF005
:10222000A3FD204610BD0000034B10B5044603601B
:1022300015F0EAFA204610BD2422030810B5044622
:10224000FFF7F2FF182120462DF08EFD204610BD2D
:10225000084B10B50446036000F5A270FFF7BAFF03
:1022600004F12C00FFF7CAFF04F11400FFF7DCFFB4
:10227000204610BDC022030808B50248FFF7E8FF5A
:1022800008BD00BF7C12002010B50446FFF7E0FF38
:102290004FF43B7120462DF067FD204610BD000035
:1022A0002DE9F34101F032FD0024054601F032FD35
:1022B000234601462246284600941EF0E9FC274B9F
:1022C000274A2046274D1A6002F06CFB264B274A0E
:1022D00027489A601EF044FC2B68BFF35B8FDB0736
:1022E00035D428462DF042FD88B3224C224B04F50C
:1022F000C87604F1140004F12C0804F5A2772360D9
:102300006060C4F80880E760266115F07FFA1B4B17
:102310004046636115F07AFA194B3846E36215F0CE
:1023200075FA184B04F5C670C4F8443102F0FAFB94
:10233000224604F5C671304602F0AEFB304601F08D
:10234000F7FF11482EF0A6F828462DF01BFD0F4888
:1023500002B0BDE8F041FEF7A1BE00BFA06C0120B5
:102360002804002078120020480400202C040020BB
:102370000C0000207C120020C02203082422030845
:10238000582203088C22030879220008AC0300209D
:10239000704700000148FEF797BE00BFAC03002065
:1023A00073B50E4C0E4B0F4E20460F4D3360FFF7AA
:1023B000ADFA284623F07EFD0C481CF01FFD4FF4BB
:1023C00048734FF4F07221460948CDE90032334694
:1023D0002A46FEF72BFF02B070BD00BFD4040020D8
:1023E0009419030874120020480400202C040020D3
:1023F000AC0300200148FFF741B900BFD40400201E
:102400000020704781807047C1807047018170470C
:10241000418170477047704770477047704710B4EC
:10242000C4880368121B84885B6D091B12B25DF8B7
:10243000044B09B218474FF6FF7383814FF0FF3307
:1024400003621368C36110607047002070478B8877
:10245000838001207047704780F82610704790F8FD
:1024600026007047002210B5B1F90840B1F90A10F2
:10247000028042808480C18010BD002202804280A0
:102480008280C28070470177704780ED080A7047EC
:1024900080F82410704780F825107047012070479D
:1024A000983070478C307047843070477047000018
:1024B000024B902283F85A23704700BF00E100E0EE
:1024C000024B4FF080629A60704700BF00E100E06D
:1024D00070477047124A5369DB0370B51ED500235D
:1024E000C2F88430BFF34F8FD2F8803043F6E074E7
:1024F000C3F3C900C3F34E335B0103EA040601468C
:1025000046EA81750139C2F87452F9D2203B13F1C1
:10251000200FF2D1BFF34F8FBFF36F8F70BD00BF9D
:1025200000ED00E00163C0E90D217047704770477E
:10253000704700EB8100114640680368DB6818476C
:1025400080F83C10704710B5044648212DF00CFC73
:10255000204610BD10B504462C212DF005FC204668
:1025600010BD10B50446BC212DF0FEFB204610BD69
:1025700038B5044615F047FC23685D6E1BF0E8FA99
:1025800001462046A8472368074A2046D3F88850CA
:1025900000230649A847064B064A5A60064A1A63B2
:1025A0009A63064A5A6338BD007017C000B80BC062
:1025B0002816002070160020000000C000B80B0094
:1025C00015F0D2BB15F033BD38B504460D46406C4E
:1025D0004FF0FF3105F0A4FE606C05F0D1FE24231E
:1025E00003FB0545002385F8283094F828300BB903
:1025F000236BA36338BD90F8252012B103685B6993
:102600001847704708B531B1044B4FF4B871044A0C
:1026100004482DF021FF90F8290008BDCC220308C2
:10262000E02203086A24030810B531B1064B4FF4C9
:10263000B571064A06482DF00FFF40681146036841
:10264000BDE810401B6B1847CC220308AD240308DB
:102650006A24030808B529B1034B7921034A0448C9
:102660002DF0FAFEC06808BDCC2203085B260308E3
:102670006A24030810B5044629B1194BA221194A4E
:1026800019482DF0E9FE052A15D8DFE802F00311FC
:1026900015171C22406803681B69984758B101232D
:1026A00084F8293084F82C300023C4E9043302E094
:1026B000002380F8293010BD0362F5E7036201238F
:1026C00080F82A30F0E7002380F8293001230362E4
:1026D000F1E7003B18BF012380F82D30EBE700BF86
:1026E000CC220308102803086A24030810B50C46FE
:1026F00011461A462CB1064B9021064A06482DF089
:10270000ABFEC46040680368BDE810409B68184792
:10271000CC220308E42903086A24030808B529B178
:10272000054B8221054A06482DF096FEC0E90411AA
:10273000C0E9063208BD00BFCC220308BF2B030846
:102740006A24030890F83D3010B5044653B14FF0A9
:10275000FF31406C05F0E4FD002384F83D30012397
:1027600084F83E3010BD90F825201AB190F824204E
:1027700002B118607047000010B50446104629B138
:10278000134BD021134A14482DF066FE94F82930DB
:1027900033B1124B1B6893F86B2063691344636178
:1027A00094F82B300BB9012010BDA36803630368B4
:1027B0005B699847002394F82C0084F82B3000289C
:1027C000F1D194F82D30002BEED184F82900EBE7FD
:1027D000CC2203087B2D03086A2403083C6C0120EB
:1027E00010B5174C15F002FB94F8293013B994F882
:1027F0002A30ABB1E169D4E90532534322694A4337
:1028000093420DD394F83C0038B19B1AB3FBF1F21C
:10281000994298BF02F1FF326262012384F82E30A0
:102820000123206C84F83D3005F06AFE94F83E30B8
:102830002BB1606C05F0A4FD002384F83E3010BD80
:1028400028160020044B4FF08062C3F88820BFF3A5
:102850004F8FBFF36F8F704700E100E0034690F8A1
:10286000280070B5D8B901229D6BD8609A624FF4E8
:10287000807218619A8505F53B22586102F5006265
:102880009861D8611862586283F82E00D3E90C462B
:102890003444A2420AD90B4B52210B4A03E00B4BA2
:1028A00040F2C5110A4A0B482DF0D6FD9D609A638F
:1028B0004FF4487381F83400CB864FF4F07308630B
:1028C0000B8770BDD33003080E3103081C2F03089B
:1028D0004C2F03086A240308002370B5124E0546E6
:1028E0008380124B0360336893F858200AB1D86C88
:1028F00000B998680368DB6A98473368B0FA80F4D7
:10290000D86C640930B10368DB6A9847002808BFB7
:1029100044F001042CB9064B2C21064A06482DF040
:102920009BFD284670BD00BF3C6C0120B4330308FA
:10293000B13203080F3303084833030870B5244E3F
:102940003568BFF35B8F15F001053FD130462DF0A0
:102950000DFA00283AD01F4C1F4B04F134002561BA
:10296000E584A562A585C4E90035C4E902551CF0DB
:10297000A4FC04F1580017F0F5FC184B2046A365A1
:10298000174B40F8843BFFF7A7FF164B1648C4F8D7
:1029900084302433C4F89050C4F88C306423C4F8D5
:1029A0009C50C4F8A850C4E928350023C4F8AC30C2
:1029B000C4F8B030C4F8B430C4F8B8300B4BC4F825
:1029C00098302DF067FD30462DF0DCF9014870BDE0
:1029D000681500206C150020A4620308D433030896
:1029E0004C34030858620308AD2400083862030819
:1029F0002DE9F743044601264FF4C8674FF0FF3135
:102A0000206C05F041FD4FF0FF31606C05F088FC53
:102A100094F82E3043B36568D4F820802B6884F88E
:102A20002B60B8F1000F23D05B6A414628469847D7
:102A3000002323622B684FF4487200972846D3F88E
:102A400014804FF4F073A168C047236984F82C0008
:102A500001332361F0B12B6828469B6A98470138FF
:102A60000023E06084F82E30606C05F089FCC5E737
:102A7000626A002ADED02846D3E909939847616A42
:102A800001442846C8472369626AC4F82480134475
:102A90002361CFE70120E3E7014808B5FFF7A8FF6E
:102AA0002816002038B5154900251548FFF766F8A7
:102AB000144C154B2A462946012023604FF480739D
:102AC000A563A387A38584F83E5084F82E50C4E9FB
:102AD0000C55C4E91055C4E90155C4E90355C4E9CE
:102AE0000555C4E90755C4E9095505F075FC20648E
:102AF000284605F0D3FB606438BD00BFB81600203F
:102B00007016002028160020983403080149002080
:102B100007F09CB91115000808B5642005F0A6FB64
:102B2000FBE7000000B54FF4407395B041F28832E6
:102B300017480C93062306A906930023CDE90D330D
:102B40000F930B931393CDE9113304F09DF9E0B982
:102B5000022301224FF4800104900D48CDE9003397
:102B60001023CDE9023205236A46CDE905134FF063
:102B7000407306A90F9341F2883304F086FA0038B7
:102B800018BF012015B05DF804FB0120FAE700BF73
:102B90007823002030B595B010220021022409A826
:102BA00007252DF015FF1422002102A82DF010FF9B
:102BB0001D4B192107A81A6C42F080521A641B6C35
:102BC00003F080530093009B184B1A6842F4404274
:102BD0001A6001221B68139503F440430193019B83
:102BE0004FF48033CDE907234FF48003CDE90D4343
:102BF0004FF4D873CDE91144CDE90F1304F0D8FA9E
:102C000003F0D6FF0F2300202946CDE902344FF40C
:102C1000A053CDE904034FF4805302A8069304F0B7
:102C2000B9FC15B030BD00BF003802400070004054
:102C300038B50D4A00250D4C0D4B20462562C4E9E0
:102C400000230123C4E90455C4E90253C4E906552D
:102C500003F0B5FB2946204603F0DFFD2946204658
:102C6000BDE8384003F0FFBD006000406C24002048
:102C7000684740202DE98048BBB010220021012484
:102C80002CA81C262DF0A4FE032502F005FB4FF016
:102C90000050D04B40F20117ADF8B040CDE92D0304
:102CA000CD4B2CA82F9302F015FB4FF010438DF85D
:102CB000B14000242CA82D938DF8B8608DF8BB404E
:102CC000ADF8BE4002F006FB02232CA88DF8BB50E5
:102CD0008DF8B1301923ADF8BE708DF8B83002F020
:102CE000F9FA4FF040432CA88DF8B86004262D93D4
:102CF0008DF8B1508DF8BB40ADF8BE4002F0EAFA55
:102D000017232CA88DF8B1608DF8B8308DF8BB5022
:102D1000ADF8BE7002F0DEFA304602F0CBFABFF337
:102D20004F8FBFF36F8FAD4AC2F85042BFF34F8F42
:102D3000BFF36F8F536943F400335361BFF34F8F79
:102D4000BFF36F8FC2F88440BFF34F8FD2F880304B
:102D500043F6E074C3F3C900C3F34E335B0103EAE7
:102D60000406014646EA81750139C2F86052F9D27B
:102D7000203B13F1200FF2D1BFF34F8F536943F47F
:102D800080335361BFF34F8FBFF36F8F02F0EAF9C7
:102D90000125FFF7FFFE142200212CA82DF018FEBC
:102DA0008F4B4FF400418F481A6B4FF400460024BC
:102DB0004FF0030B42F010024FF002088A4F4FF021
:102DC000040A1A634FF480491A6B02F0100203924E
:102DD000039A1A6B42F002021A631A6B02F00202A3
:102DE0000492049A1A6B42F040021A631A6B02F0C2
:102DF00040020592059A1A6B42F008021A631A6B98
:102E000002F008020692069A1A6B42F004021A6354
:102E10001A6B02F004020792079A1A6B42F480724E
:102E20001A631A6B02F480720892089A1A6B42F0C5
:102E300020021A631A6B02F020020992099A1A6B97
:102E400042F400721A631A6B02F400720A920A9A30
:102E50001A6B42F080021A6301221B6B03F080039D
:102E60000B930B9B03F06AF90022C0215F4803F02B
:102E700065F9002240215E4803F060F9002202213A
:102E8000584803F05BF92CA95648CDE92C65CDE9EB
:102E90002E5502F0CFFFC0232CA95448CDE92C3584
:102EA000CDE92E4B02F0C6FF40232CA95048CDE9B6
:102EB0002C35CDE92E4B02F0BDFF2CA94948CDE9B8
:102EC0002C85CDE92E4B02F0B5FF31462246454810
:102ED00003F034F9142002F069F931462A464148DA
:102EE00003F02CF90A2002F061F92422214615A8EA
:102EF0000E942DF06DFD182221460FA84FF4807618
:102F00002DF066FD342221462CA82DF061FD2C22E7
:102F100021461EA82DF05CFD364B64220CA93846D4
:102F2000C7E900340523C7E902A5CDE90C2302F067
:102F3000F5FB15A938461D94CDE91554CDE9174484
:102F4000CDE91944CDE91B4402F054FE1C21212394
:102F50000F20CDE90F1319230FA9CDE9110338462E
:102F6000CDE9134402F009FE5146384602F0F4FD63
:102F700042F21071384602F047FF4FF48071384634
:102F800002F069FB4FF400734FF4806C4FF4805EE5
:102F90004FF400324FF400213846CDF8E080CDE9FF
:102FA0002C634FF40063144ECDE92EC34FF400534D
:102FB000CDE930E34FF48033CDE932934FF48023F1
:102FC0004FF01009CDE934234FF08073CDE936136B
:102FD00014E000BF120000030100010100ED00E059
:102FE0000038024000240240C024002000080240B3
:102FF00000140240006C0140C42300202CA902F000
:1030000077FDC8231EA938462895CDE92039CDE99A
:103010001E44CDE9224ACDE92484CDE9264402F0BC
:10302000F5FC2146384602F0E0FC214634221EA879
:103030002DF0CEFCCC4ACA204FF0CB0CC6F8208035
:10304000B48686F83640C6E900244FF4F172C6E92A
:10305000090240F2E3123046C6E90BC2C6E9024457
:10306000C6E90445C6E9065803F0A8FCFF214FF461
:10307000806E4FF4F072C823304629921E94ADF84A
:10308000A8408DF8AA40CDE923140521CDE92128D7
:10309000CDE925E122461EA9CDE91F34CDE927431C
:1030A00003F058FD32683846936923F001039361B9
:1030B00002F006FE2946404601F0ECFD28231522C9
:1030C00021463846009402F02EFE2CA9384636944C
:1030D0004FF44077CDE92C44CDE92E44CDE930447E
:1030E000CDE93244CDE9344402F002FD32689F4E0E
:1030F0004FF40061936930462B43936120229C4B2F
:10310000B462CDF8B080C6E900344023C6E9042398
:103110004FF4C073C6E906344FF48053C6E9081370
:1031200007232CA9CDE92D3ACDE92F38C6E9024A6B
:10313000CDE9318B04F0A8FD4FF6FF721EA9304691
:103140000F94CDE91E59CDE9205404F0BDFD284669
:1031500002F02CF84FF6FF721EA93046CDE91E8909
:10316000CDE9205404F0B0FD08234FF6FF721EA9EC
:103170003046CDE92034CDE91EB904F0A5FD4FF469
:103180000C734FF6FF721EA90F9330460F9B2095CC
:103190002193CDE91EA904F097FD40F22A71304633
:1031A000744E04F0B0FD43F2D2024FF0204330469B
:1031B0001A6003F580533462C6E900351923C6E965
:1031C0000299C6E90437C6E9064403F00BFE3297BC
:1031D000662741F288322CA930462C9735943194D9
:1031E0003994CDE93344CDE9374403F04DFE00284E
:1031F00040F0AF80992441F288322CA930462C94BB
:1032000003F042FE002840F0A4804FF4807341F2A6
:1032100088322CA9304632932C9703F035FE0028D3
:1032200040F0978041F288322CA930462C9403F06C
:103230002BFE0446002840F08C804FF47A7001F099
:10324000B5FF4FF480031EAA2CA923934FF480737B
:103250003046CDF88090329305232C934FF0807345
:10326000359341F28833CDE91E45CDE9215403F071
:103270000CFF00286DD14FF48073319041F28832F9
:103280002CA9329305232C934FF08073CDE93300A2
:10329000CDE93650CDE938003046359303F0F4FDE2
:1032A000002856D141F2883215A9304603F08DFE30
:1032B00000284ED14FF480733590319041F288321E
:1032C0003293062339902CA92C93CDE93300CDE914
:1032D0003700304603F0D8FD00283AD100232C46B1
:1032E00021954FF0807522934FF480031EAA2CA9DC
:1032F000239305233046CDF880902C9341F28833F8
:103300003595CDE91E8803F0C0FE10BB4FF48073E5
:10331000319041F288322CA932939DF854302C948C
:1033200043F040033595CDE93300CDE93640CDE992
:10333000380030468DF8543003F0A6FD48B941F20C
:10334000883215A9304603F0E4FD10B9282001F0B9
:103350002DFF4FF4807341F288322CA90548329337
:1033600035232C93002307E000680140442300200C
:10337000400100A078230020CDE933333593319309
:103380003993CDE9373303F07FFDE0B941234FF0A6
:10339000400C4FF0010E22901EAA2CA9B848CDE98E
:1033A0001EC31023CDE9203E4FF4800323934FF436
:1033B0004073329305232C934FF04073359341F2C1
:1033C000883303F062FEB7234FF440741E9300234A
:1033D0002494279323932B93CDE92533CDE92933E7
:1033E000FFF7A0FB18BB41F288321EA9A44803F0E6
:1033F0004BFDE0B905233190399015AA2C934FF07D
:10340000407315902CA93593012332941693CDE97E
:103410001830102317934FF48003CDE93300CDE922
:1034200037001A9341F28833954803F02EFE0523A6
:103430004FF440764FF0407401252C93002341F265
:1034400088322CA98E48329635943193CDE93333A6
:10345000CDE93653CDE9383303F016FD00284FD1BE
:1034600041F288321EA9864803F0AFFD002847D1FB
:103470001523319041F288322CA932962C93359441
:10348000CDE93300CDE93650CDE938007C4803F072
:10349000FBFCA8BB41F288320DF17901784803F0BA
:1034A00094FD68BBFFF73EFB50BB0223C02232965F
:1034B0002C9535943190CDE93300CDE93630CDE906
:1034C000380092FAA2F203219DF87930B2FA82F222
:1034D0006B4803F03F0301FA02F22CA9134341F2B7
:1034E00088328DF8793003F0CFFC48B941F2883248
:1034F0001EA9634803F00DFD10B9282001F056FE07
:1035000005234FF440764FF0407401252C9300239F
:1035100041F288322CA95A48329635943193CDE93C
:103520003333CDE93653CDE9383303F0ADFC002811
:103530004BD141F288321EA9514803F046FD0028C4
:1035400043D11523319041F288322CA932962C9325
:103550003594CDE93300CDE93650CDE938004848FF
:1035600003F092FC88BB41F288320DF179014448A6
:1035700003F02BFD48BBFFF7D5FA30BB022307222F
:1035800032962C9535943190CDE93300CDE9363023
:10359000CDE9380092FAA2F206219DF87930B2FA0C
:1035A00082F2374823F0070301FA02F22CA91343F1
:1035B00041F288328DF8793003F066FC28B941F287
:1035C00088321EA92E4803F0A4FC4FF44073002457
:1035D0001EAA2C4D3293EC232CA929482C934FF48E
:1035E0004063399433934FF440532F934FF040731B
:1035F000CDE934430A23CDE937443193CDE91E4464
:1036000003F094FD204B2846C5E90034C5E9024487
:10361000C5E90E44C5E91044C5E9124401F0E7FECE
:103620000121284601F0A6FFFFF702FBFDF705FA8E
:103630001648174B848003600123C0E905440362E8
:1036400001F074FEFDF7FBF9FDF7F8F904F080FDD9
:10365000104A2146104804F0B5FD104B104A21468F
:103660001860104804F0AEFD0F4B104A2146186058
:103670000F4804F0A7FD0F4B186004F083FD1BE01A
:1036800078230020DC24002000B0024034250020F4
:103690000030024040350308192B00084023002069
:1036A0001C3503084D0A00083C230020F8340308A9
:1036B000992A000838230020FEE700BF0268034B68
:1036C0009A4201D101F060BD704700BF0010004078
:1036D000704700000D4B82B00F216FF001001A6C93
:1036E00042F080521A641A6C02F080520092009AE2
:1036F0005A6C42F480425A6400225B6C03F48043AB
:103700000193019B02B001F075BD00BF003802407B
:10371000026882B0084B9A420BD1D3F8302803F5E7
:10372000006342F480521A631B6B03F480530193CD
:10373000019B02B0704700BF003002400E4B07B53E
:1037400002689A4215D1A3F5F04305215A201A6B5D
:1037500042F400021A6300221B6B03F4000301937E
:10376000019B01F047FD5A2003B05DF804EB01F026
:1037700073BD03B05DF804FB00B0024010B588B023
:1037800004461422002103A82DF022F92268154BCB
:103790009A4225D103F54C4303A913485A6C42F0D1
:1037A00000625A645A6C02F000620192019A1A6B2C
:1037B00042F400721A6304221B6B03F40073029339
:1037C000029B0223CDE903230D23079302F032FB72
:1037D00062200022052101F00DFD622001F03CFD78
:1037E00008B010BD006C014000240240F0B5ADB03F
:1037F00004461422002103A82DF0EAF890220021AB
:1038000008A82DF0E5F82268254B9A4246D14FF4DE
:10381000003308A8089303F089FF08B1FFF758FFA9
:10382000204C122701260325236B03A91E4843F0D1
:1038300002032363236B03F002030093009B236BBB
:1038400043F008032363236B03F008030193019BF8
:103850008023CDE903370B23CDE90565079302F0FB
:10386000E9FA4FF4805303A91048CDE90337042344
:10387000CDE90565079302F0DDFA236C5F20002295
:10388000052143F080732364236C03F0807302935B
:10389000029B01F0AFFC5F2001F0DEFC2DB0F0BD1B
:1038A000006000400038024000040240000C02406A
:1038B000026808B50B4B9A4212D10B4A80210B4883
:1038C000136C23F08073136402F098FB08484FF4E4
:1038D000805102F093FB5F20BDE8084001F0CABCB4
:1038E00008BD00BF006000400038024000040240F4
:1038F000000C024010B5A6B004469022002102A898
:103900002DF066F82268144B9A4222D10823072032
:1039100002934FF4C07307930223CDE908300123CB
:1039200002A80C9303F002FF08B1FFF7D1FE0B4B86
:10393000582003215A6C42F080625A6400225B6C6A
:1039400003F080630193019B01F054FC582001F0C7
:1039500083FC26B010BD00BF006801400038024063
:10396000142200212DE9F0418AB004460DEB02003B
:103970002DF02EF822683A4B9A426ED1394B02252F
:10398000032409269A694FF0040805A9364842F035
:10399000020200279A619A6922F002029A619A6BE8
:1039A00042F002029A639A6B02F002020092009ABD
:1039B0001A6B42F010021A631A6B02F010020192A5
:1039C000019A1A6B42F002021A631A6B02F00202A9
:1039D0000292029A1A6B42F004021A631A6B02F006
:1039E00004020392039A1A6B42F008021A631B6BDB
:1039F00003F008030493049BCDE90585CDE908464F
:103A000002F018FA402305A91848CDE9053501232D
:103A1000CDE907340A23099302F00CFA4FF4C0638E
:103A200005A913480996CDE90535CDE9077402F0DB
:103A300001FA05A90D480996CDE90585CDE9077478
:103A400002F0F8F94FF4005305A90A480996CDE9A8
:103A50000535CDE9077402F0EDF90AB0BDE8F08153
:103A6000001000A000380240001002400004024094
:103A700000080240000C0240F0B5002387B0039319
:103A80002A4B1E68002E4FD10122022703250C2449
:103A90001A6001A9264B27489A6B42F001029A63EB
:103AA0009B6B03F001030093009B4FF68373CDE9FA
:103AB0000454CDE9013702F0BDF948F2331301A9EE
:103AC0001D480594CDE90137CDE9036502F0B2F94F
:103AD0004CF2037301A919480594CDE90137CDE9EA
:103AE000036502F0A7F940F2FF6301A914480594A9
:103AF000CDE90137CDE9036502F09CF94FF63F03AC
:103B000001A910480594CDE90137CDE9036502F01C
:103B100091F94FF62C7301A90B480594CDE90137B3
:103B2000CDE9036502F086F907B0F0BD5825002005
:103B3000003802400010024000180240000C024011
:103B40000020024000140240001C0240214B1A6C6D
:103B500042F0100270B51A6488B01B6C054601A9CA
:103B600003A803F010030293029B03F0C1FD069B20
:103B70004BBB03F0ADFD184E184B336040F2E733FA
:103B8000F360174BB0FBF3F3013B30467360002347
:103B90003361B360B36104F01DFA044680B9304666
:103BA00004F0CAF8044658B9362001F055FB0F2D31
:103BB0000DD822462946362001F01CFB094B1D601A
:103BC000204608B070BD03F083FD4000D3E7012418
:103BD000F6E700BF003802405C25002000100040DE
:103BE00040420F00400000207047FEE7FEE7FEE77E
:103BF000FEE77047014804F0E1B800BF5C250020F3
:103C0000014802F04ABF00BFC4230020014801F070
:103C100026BC00BFDC240020014802F0F7BD00BF35
:103C20006C240020014801F06EBE00BFC0240020BB
:103C30000120704708B52CF07FFF162303604FF07A
:103C4000FF3008BD08B52CF077FF16230360FEE7B0
:103C500070B50D4614460E46731B9C4201DC20468F
:103C600070BDAFF3008006F8010BF5E770B50D46A7
:103C700014460E46731B9C4201DC204670BD16F8AC
:103C8000010BAFF30080F5E74FF0FF3070474FF4C2
:103C9000005300204B6070470120704700207047A0
:103CA0000A4A116808B5034609B909491160106844
:103CB000694603448B4206D92CF03EFF0C23036077
:103CC0004FF0FF3008BD1360FCE700BFA8250020BF
:103CD00080790120704710B5044604212CF044F887
:103CE000204610BD012908B506D0022908D059B9CF
:103CF00000F0A4FE006808BD00F0A0FE4068FAE7EE
:103D000000F09CFE8068F6E70020F4E7004870476A
:103D10007835030806207047704770477047704732
:103D20007047036870B504461B6B154698472368B7
:103D3000204629465B6BBDE87040184770B50446C5
:103D40001D46BDF91060FFF7ECFF236829462046A9
:103D50009B6B9847236831462046DB6BBDE870407B
:103D6000184713B5002451B1036801AA01948DF8D6
:103D700003409C680DF10303A04702B010BD084644
:103D8000FBE7C0897047008A7047C0887047808809
:103D90007047807A00F07F007047807AC0097047D2
:103DA000002070479FED010A704700BF000000002F
:103DB000704710B5044608212BF0D6FF204610BDF1
:103DC0007047704700F598730868496803C37047E7
:103DD0007047704741607047002210B5B1F9084044
:103DE000B1F90A10028042808480C18010BD704702
:103DF00070470000064BC0F84801C0F84C31002362
:103E0000C0F8503100F5A273C0F84031704700BFD0
:103E1000CD3F000801230372704770477047704719
:103E2000704701464068036810315B6E184770B5F3
:103E3000054640680368DB69984704463CB96868F2
:103E400005F110010368BDE870401B6E1847A1889A
:103E50002046AB89C91A236809B21B6B9847A4692D
:103E6000ECE7704710B441680346C2689B68541081
:103E700001EB6200D20748BF0A595DF8044B48BF06
:103E8000D35818470346406830B19A681AB9D868C1
:103E900000F0010070470120704710B504460C2166
:103EA0002BF062FF204610BD10B5044610212BF008
:103EB0005BFF204610BD10B504464FF4AE712BF0E9
:103EC00053FF204610BD10B5044638212BF04CFF9F
:103ED000204610BD10B5044628212BF045FF204692
:103EE00010BD10B519F034FE0368BDE81040DB6B5F
:103EF0001847000037B50546807A01306B7AC0B2AA
:103F00009842A87205D901232B720023AB7203B02B
:103F100030BDB5F90C200021B5F90E401BF058FE5C
:103F2000C30706D500284FF6FF73C8BF0123184406
:103F300000B2AB7A041BE881012BA4B206D1174B67
:103F40001B781BB119F004FE19F008FE0023144A77
:103F5000ADF802301288EB891A445B42ADF80430A8
:103F6000104BADF800201B88ADF8063019F0F0FDBD
:103F700002AA036812E906001B6C98476868036888
:103F8000DB6998470546002DC1D0A98828462B68D3
:103F900021441B6B09B29847AD69F4E73A6C0120E4
:103FA000306C0120326C012010B50446D0F840017D
:103FB00058B10368DB68984738B1D4F8400103680A
:103FC0009B6898470023C4F8403110BD2DE9F14F9C
:103FD000D0E9556A0746B06803681B6A9847B0F590
:103FE000887F05D2444BA321444A45482CF034FA3B
:103FF000706803681B6A98470F2803D8414BA421B7
:104000003E4AF2E7F06803681B6A98470B2803D81A
:104010003D4BA521394AE8E7DFF8F49019F098FD07
:10402000043019F0E2FDD9F8000010B10368DB6834
:104030009847D9F8000010B103681B689847DFF86B
:10404000D480D8F8000010B103685B699847D7F8AE
:104050003C0110B103685B689847D8F8000010B1C4
:1040600003681B689847D7F83C0110B103689B6848
:104070009847F06800214FF0000B03685B6A98478F
:10408000224B0446C0F804B080F808B059460360DB
:10409000B06803685B6A9847054600F037FD7068B2
:1040A000594603685B6A98470646294600F00CFDAE
:1040B000331DC7F83C612846C9F80040C8F80050D5
:1040C000CAF800302B68C6F808A0DB68EE63984792
:1040D000336830461B689847214628461BF072FD1E
:1040E000236820461B699847236820465B6901B016
:1040F000BDE8F04F184700BF003603088E360308AE
:1041000068370308AF37030852380308BC3A03087E
:10411000846C0120806C01202DE9F74FD0E955BA5D
:104120000746DBF8080003681B6A9847D32805D8C0
:10413000544BA321544A55482CF08EF9DBF8040067
:1041400003681B6A98470F2803D8514BA4214E4A95
:10415000F1E7DBF80C0003681B6A9847372803D89F
:104160004C4BA521484AE6E7DFF83C9119F0F0FCFA
:10417000043019F03AFDD9F8000010B10368DB688B
:104180009847D9F8000010B103681B689847DFF81A
:104190001C81D8F8000010B103685B699847D7F814
:1041A0003C0110B103685B689847D8F8000010B173
:1041B00003681B689847D7F83C0110B103689B68F7
:1041C0009847DBF80C000021002503685B6A9847DC
:1041D000314B0446456003604FF4A0538572294675
:1041E00003814FF48073C58143632C4B03612C4BD7
:1041F0001B885A421BB282812A4AB2F90020C0E9C8
:104200000555C0E90755C0E90955C0E90B550092AD
:1042100010302A46FFF792FDDBF8080029460368B4
:104220005B6A9847064600F0AFFCDBF804002946BD
:1042300003685B6A98470546314600F085FC2B1DF4
:10424000C7F83C513046C9F80040C8F80060CAF8C9
:1042500000303368C5F808A0DB68F56398472B6821
:1042600028461B689847214630461BF0ABFC236864
:1042700020461B699847236820465B6903B0BDE868
:10428000F04F184700360308F5380308683703086D
:10429000AF37030852380308E03A0308E839030847
:1042A000306C0120326C0120846C0120806C012074
:1042B000044B1B6893F858200AB1D86C00B9986871
:1042C000704700BF3C6C0120F8B5174604460E4607
:1042D00019F02CFD124B00251C602946114B236060
:1042E000114BC4E95135114B1868C4E953550368A3
:1042F000C4E94F559B68C4E955769847284600F0B5
:1043000051FBFFF7D5FF23F028FCFFF7D1FF23F087
:104310009FFCFFF7CDFF23F0A7FC2046F8BD00BFB0
:10432000906C0120683A0308503A03083C6C012065
:10433000064BC0F84801C0F84C310023C0F850319A
:1043400000F5A273C0F84031704700BFCD3F0008B0
:10435000064BC0F84801C0F84C310023C0F850317A
:1043600000F5A273C0F84031704700BF1941000842
:10437000406A7047806A704770478B88C069DB0A63
:104380000A6850F823001044704710B50446BAB1CB
:10439000107B68B1537BD27A1B0203F4E0631A43AB
:1043A000236A03EB82031A888A4202D193F902003E
:1043B00010BD05D80138043380B20028F3D1F7E7E7
:1043C0000020F5E710B504462C212BF0CDFC20464B
:1043D00010BD000030B58BB00446BDF860500895A4
:1043E000BDF85C5007959DF8505006959DF84C50CF
:1043F00005959DF8485004959DF8445003959DF807
:10440000405002959DF83C500195BDF838500095FC
:104410001BF010F8064B20462360159BE361169BAA
:104420002362199B63621A9BA3620BB030BD00BF6D
:10443000043B03087047704710B504464FF4887179
:104440002BF092FC204610BDD0F80C310133B42B78
:1044500010B50446C0F80C3106D119F079FBFFF70E
:1044600077FF0023C4F80C3110BD00000022C0E922
:104470000122C0E90322C0E90522C0E907224FF466
:1044800080728284014A0260704700BF6C3B03085F
:104490002DE9F04F044689B000251BF0E7F9A0464E
:1044A0005E4B4FF0260B2946E56304F16C0948F892
:1044B000403B5A46404604F198072CF089FA4046A2
:1044C000FFF7D4FF564B4FF6FF7A06A92364FF236C
:1044D0004846A56684F8663004F1C406ADF818A015
:1044E00015F0A8FF5A4629463846ADF818A02CF01A
:1044F0006FFA3846FFF7BAFF4A4B06A93846C4F8A8
:104500009830BDF8183084F8C0A0A4F8BE3016F07A
:1045100024FF5A46294630462CF05AFA3046FFF717
:10452000A5FF414B4FF4F07BA4F8F0A0C4F8C430D1
:104530002A463E4B29464046C4F8F450C4F8EC30B5
:104540004FF47F03A4F8FC5004F1040AC4F8F830D7
:104550004FF0FF33C4F80051C4F80C51C4E94135A1
:104560004FF44873CDF800B0FFF7E8FB4FF07F42FF
:1045700041465046A26613F05DF906A94846ADF8DB
:10458000185016F0EAFE4FF448732A46294648466A
:10459000CDF800B0FFF7D2FB2946484615F005FFDD
:1045A0004946504613F046F9642238464FF4967156
:1045B000FFF7B7FB052306A93846ADF8183016F00B
:1045C000CCFE3946504613F035F9304640F23912E8
:1045D0004FF4A271FFF7A5FB02AF4FF07F423146C7
:1045E0003846A4F8F850C4F8F42016F027FA04F579
:1045F000807397E8070083E807000C4B06A9304654
:10460000ADF81C50069316F0C1FC5046314613F02D
:1046100011F9204609B0BDE8F08F00BFD43B030874
:104620006C6403084C650308DC630308F835030871
:104630007047704710B50446D4212BF095FB2046F7
:1046400010BD00002DE9F04F044687B01BF00EF9B5
:104650000025A0463B4BE56304F16C0648F8403B5F
:104660000DF1140A384B04F1980751464FF4F07BD2
:1046700030462566A56604F10409C4E910354FF4F7
:104680008073A4F86430FF2384F866304FF6FF731C
:10469000C4E91255C4E91455C4E91655ADF81430EF
:1046A00015F0C8FE384616F031FE2A462946404627
:1046B0004FF44873CDF800B0FFF740FB4FF07F4355
:1046C00041464846A36613F0B5F851463046ADF86A
:1046D000145016F042FE4FF448732A4629463046DD
:1046E000CDF800B0FFF72AFB2946304615F05DFEF5
:1046F0003146484613F09EF838464FF4CD7240F2EA
:104700009A21FFF70EFB032303AA02A9ADF8083094
:1047100002233846CDF800A0ADF80C300423ADF8E4
:104720001030ADF8143004AB16F05BFD074B484673
:104730003946C4F8D03013F07DF8204607B0BDE804
:10474000F08F00BF083C03086C6403081400F2FFFC
:104750007047000030B5164D8FB02C68BFF35B8FEB
:1047600014F0010420D128462BF000FBE0B13F23D8
:10477000012210490993104B10480893104B0A94DA
:104780000594CDE906430423CDE903320A23CDE99C
:104790000B440093CDE90144FFF71CFE09482BF0C0
:1047A00079FE28462BF0EEFA04480FB030BD00BF6A
:1047B000AC250020BC990C90F46B0308B0250020B8
:1047C000186C0308514700087047000030B5164DBB
:1047D0008FB02C68BFF35B8F14F0010420D1284602
:1047E0002BF0C4FAE0B13F23012210490993104B8A
:1047F00010480893104B0A940594CDE9064304230E
:10480000CDE903321423CDE90B440093CDE90144F3
:10481000FFF7E0FD09482BF03DFE28462BF0B2FAE9
:1048200004480FB030BD00BFDC250020CC990C90AF
:10483000F86B0308E02500201C6C0308C94700083A
:104840007047000030B5164D8FB02C68BFF35B8FFA
:1048500014F0010421D128462BF088FAE8B13F2357
:10486000012210490993104B10480893104B0A94E9
:104870000594CDE906430423CDE90332282306221B
:104880000093CDE90B44CDE90144FFF7A3FD0948AE
:104890002BF000FE28462BF075FA04480FB030BD0F
:1048A0000C260020DC990C90FC6B030810260020DD
:1048B000206C030841480008002070470020704722
:1048C0000EB403B503AB002153F8042B01931AF087
:1048D000B5F802B05DF804EB03B070470CB407B54F
:1048E00004AB53F8042B01931AF0A8F803B05DF859
:1048F00004EB02B070470000436C10B5044673B37C
:10490000038F2BB9184BC521184A19482BF0A4FD69
:10491000C38E00EB43035B8C0BB31BF0E5FE238FD0
:10492000012B03D8134BCB21134AEEE7E28E40F65E
:104930003F10531C9BB2092B194688BFA3F10A01F3
:1049400004EB4101498C814209D10A2B04EB42025C
:1049500028BF0023508C04EB430358845184204625
:10496000BDE810401BF0C2BD343C03083D3C0308C9
:10497000E83C0308323D0308403D03081BF07FBDBF
:1049800010B586B002AC84E806001A460AAB214690
:1049900005930193099B0093089B18F05BFC06B0FC
:1049A00010BD000038B518BB124B13481C681349E2
:1049B000B4B1226822440260626822440A60A2689C
:1049C00014440F4B00221A8000F038F8054600F01E
:1049D00033F80C4B1C600C4B1D600C4B188007E02F
:1049E0000B4B03600B4B0B600B4B1C68002CE8D18E
:1049F00038BD00BF48260020402600203C2600206D
:104A000044260020946C01209C6C0120986C0120AD
:104A1000349A0C90309A0C90449A0C90044B1B687A
:104A200053F82100034B1B6803EB4000704700BFA5
:104A30003C26002040260020012070470048704797
:104A40004C26002010B5054CFFF7C0FE2060FFF794
:104A5000F9FE6060FFF77EFEA06010BD4C260020CE
:104A600010B5002404600C6014601C6010BD704719
:104A700010B504464FF4AE712BF076F9204610BD08
:104A800010B50446D0F8580100F04FF82046BDE8B4
:104A9000104019F007B9000010B50446FFF714FCE8
:104AA000014B2046236010BD1C3E030870470438AC
:104AB0007047704710B5044610212BF055F9204679
:104AC00010BDA0F10400F5E70022C1608260024A37
:104AD0000260183242607047703E03087047000061
:104AE000034B10B504460360FFF7A4FC204610BD3D
:104AF000983E030810B50446FFF7F2FF4FF48871A3
:104B000020462BF031F9204610BD000010B50446B8
:104B1000FFF7BEFC014B2046236010BD983E030802
:104B2000FFF789BC00220260704770477047043865
:104B30007047704710B5044610212BF015F9204638
:104B400010BDA0F10400F5E70022C1608260024AB6
:104B50000260183242607047CC3E03087047000084
:104B6000034B10B504460360FFF762FD204610BDFD
:104B7000F43E030810B50446FFF7F2FFD4212046A7
:104B80002BF0F2F8204610BD10B50446FFF75AFD91
:104B9000014B2046236010BDF43E0308FFF749BDDA
:104BA00070470020704710B50446FCF712F8A821A2
:104BB000E0B2FCF72BF810BD13B500240221C0B2FF
:104BC0008DF80740FCF722F88DF807009DF80730B4
:104BD00003F00F038DF807309DF80730022B01D941
:104BE0008DF807409DF80720034B9DF807005A7089
:104BF00000229A7002B010BD5826002073B5154CE3
:104C000015460E46A37862789A421FD903B3012B4A
:104C10000CBF092100210423C0B20DEB0302FCF7F5
:104C200013F89DF804309DF805201B0203F470630F
:104C300013439DF8072033809DF806301B0203F4D0
:104C4000706313432B80A3780133A37002B070BD4F
:104C50000321E0E7582600200122A421C0B2FBF77F
:104C6000B9BF0022A421C0B2FBF7B4BFFFF7F9BF60
:104C700070470000064A1378984208D0517888425D
:104C800005D00BB119B90123D054FBF7A2BF70476F
:104C90005B26002038B504460D460020C949FCF7C4
:104CA0001BFBC9490320FCF717FBC8490020FCF790
:104CB00013FBC7490220FCF70FFBC4490020FCF797
:104CC0000BFBC4490020FCF707FB0A20FCF702FBA2
:104CD000C1490020FCF700FBC0490020FCF7FCFAAA
:104CE0000A20FCF7F7FABE490020FCF7F5FABD49A7
:104CF0000020FCF7F1FABC490020FCF7EDFABB49B3
:104D00000020FCF7E9FABA490020FCF7E5FAB949B6
:104D10000020FCF7E1FAAB490020FCF7DDFAB649C8
:104D20000020FCF7D9FAB5490020FCF7D5FAB449C0
:104D30000020FCF7D1FAB3490020FCF7CDFAB249C4
:104D40000020FCF7C9FAB1490020FCF7C5FAA749D1
:104D50000020FCF7C1FA9B490020FCF7BDFAAC49E2
:104D60000220FCF7B9FAAB490020FCF7B5FAAA49D2
:104D70000020FCF7B1FAA9490020FCF7ADFAA849D8
:104D80000020FCF7A9FAA7490020FCF7A5FAA649DC
:104D90000020FCF7A1FAA5490020FCF79DFAA449E0
:104DA0000020FCF799FA95490020FCF795FAA149F3
:104DB0000020FCF791FAA0490020FCF78DFA9F49EA
:104DC0000220FCF789FA81490020FCF785FA9C490A
:104DD0000620FCF781FA9B490020FCF77DFA9A49EE
:104DE0000E20FCF779FA99490020FCF775FA9849EA
:104DF0000E20FCF771FA97490020FCF76DFA9649EE
:104E00000A20FCF769FA95490020FCF765FA9449F5
:104E10000020FCF761FA6D490020FCF75DFA91492A
:104E20000A20FCF759FA90490020FCF755FA8F49FF
:104E30000F20FCF751FA83490020FCF74DFA8C490A
:104E40000F20FCF749FA81490020FCF745FA89490F
:104E50000A20FCF741FA7F490020FCF73DFA864919
:104E60000F20FCF739FA7D490020FCF735FA834919
:104E70000F20FCF731FA82490020FCF72DFA814916
:104E80000A20FCF729FA80490020FCF725FA7F491F
:104E90000A20FCF721FA4D490020FCF71DFA7C4955
:104EA0000A20FCF719FA70490020FCF715FA794935
:104EB0000F20FCF711FA63490020FCF70DFA764940
:104EC0000F20FCF709FA61490020FCF705FA734945
:104ED0000A20FCF701FA5F490020FCF7FDF9704950
:104EE0000F20FCF7F9F95D490020FCF7F5F96D4951
:104EF0000F20FCF7F1F94D490020FCF7EDF96A4964
:104F00000020FCF7E9F969490020FCF7E5F9684958
:104F10000020FCF7E1F967490020FCF7DDF966495C
:104F20000020FCF7D9F927490020FCF7D5F963499F
:104F30000320FCF7D1F923490020FCF7CDF92149E2
:104F40000020FCF7C9F95E491020FCF7C5F91D499E
:104F50000020FCF7C1F95B491020FCF7BDF90020E7
:104F60005949FCF7B9F97820FCF7B4F9002C00F0A6
:104F7000C980022C03D155490020FCF7ADF9012D61
:104F80000BD153490020FCF7A7F952490420FCF744
:104F9000A3F951490420FCF79FF950490020FCF780
:104FA0009BF94F490020FCF797F94E490020FCF788
:104FB00093F94D490020FCF78FF94C490020FCF78C
:104FC0008BF995E0823F0308AF400308803F030858
:104FD000AC4003087E3F03087C3F03087A3F030888
:104FE000783F0308763F0308743F0308723F0308C5
:104FF000703F03086E3F03086C3F0308683F0308D7
:10500000663F0308643F0308623F0308603F0308EC
:10501000874003085E3F03085C3F03085A3F0308CC
:10502000583F0308563F0308543F03086A3F0308EC
:10503000523F0308503F03084E3F030884400308D3
:105040007D4003084C3F03086E4003084A3F0308B5
:105050005F400308483F030854400308463F0308E5
:105060002A3F030849400308443F03083940030826
:10507000294003081E4003080E400308FE3F0308B2
:10508000423F0308F33F0308403F0308E83F03089B
:10509000DD3F0308CD3F0308BD3F0308B23F0308CF
:1050A000A23F0308923F0308283F0308263F030856
:1050B000243F0308223F0308203F03088E3F0308D4
:1050C0009B4003088A4003083E3F03083C3F030817
:1050D000383F0308893F0308843F0308363F03082D
:1050E000343F0308323F0308303F03082E3F0308D4
:1050F00006490020FCF7F0F805490020FCF7ECF821
:10510000002038BD0349204637E700BF823F03082F
:105110002C3F03083A3F03080F490020D1F888309C
:1051200043F47003C1F888300C4B1A6842F0010256
:105130001A6098601A6822F0847222F480321A6031
:10514000074A5A601A6822F480221A60D8604FF029
:1051500000638B60704700BF00ED00E00038024044
:1051600010300024074A032008B5136843F4807305
:10517000136000F02DF80020FEF7E8FCFEF7AAFA15
:10518000002008BD003C0240034A044B11681B7814
:105190000B441360704700BF602600203C000020D5
:1051A000014B1868704700BF6026002038B50446E0
:1051B000FFF7F6FF0546631C1EBF044B1B78E4187F
:1051C000FFF7EEFF431BA342FAD338BD3C0000209B
:1051D00007490302CA6803F4E06322F4E0621204A0
:1051E000120C134343F0BF6343F40033CB607047AA
:1051F00000ED00E0164B30B5DC68C4F30224C4F1C6
:105200000703251D042B28BF0423062D4FF0FF356F
:105210008CBF033C002405FA03F3002805FA04F5CB
:1052200021EA030322EA050203FA04F343EA020334
:105230004FEA0313DBB206DB00F1604000F561408A
:1052400080F8003330BD00F00F00024A1354F9E734
:1052500000ED00E014ED00E0002807DB4109012328
:1052600000F01F00024A834042F82130704700BF1F
:1052700000E100E000280CDB4309012200F01F00E0
:1052800004492033824041F82320BFF34F8FBFF3FE
:105290006F8F704700E100E0BFF35F8F044B5A6AE5
:1052A00022F480325A620022C3F89420704700BF73
:1052B00000ED00E0064B40F00100C3F894005A6A8C
:1052C00042F480325A62BFF34F8FBFF36F8F704743
:1052D00000ED00E04378144AC2F89830D2F8A030CC
:1052E00023F00103C2F8A0304368C2F89C30C37AAF
:1052F000017B1B0643EA017301780B43817A43EA81
:10530000C143417B43EA8143817B43EA4143C17B03
:1053100043EA0143417A43EA0123017A43EA410324
:10532000C2F8A030704700BF00ED00E010B50446A1
:1053300008B9012010BD437F03F0FF0213B90277C3
:10534000FEF7E6F9022363772379E3B92368134A6A
:105350005A619A6822F018029A6062792368D2B979
:105360004FF0FF321A6100209A68616922F06002F2
:105370000A43A1699A609A6822F080020A439A60FF
:1053800001236377D6E7D4E90212204600F008F83B
:105390000028E2D0CDE72269E4E700BFB71DC104D1
:1053A000CB0710B50DD51F23013B1DD321FA03F404
:1053B000E407F9D5102A13D0102A04D83AB1082AE4
:1053C00010D001200BE0182AFBD1062BF9D8006879
:1053D0004161836823F0180313438360002010BDEC
:1053E000072BF3E70F2BF1E7102AE5D1E9E710B51A
:1053F000044680B390F8513003F0FF021BB980F8E7
:105400005020FEF79BF90223616884F8513023682D
:105410001A6822F440320A43A1681A605A6B22F0DB
:1054200007020A43E1685A631A6C22F47F5222F0A1
:105430003F020A431A64596BD4E9040221F4401173
:10544000520542EA005200200A435A630123606574
:1054500084F8513010BD0120FCE7704770470368A5
:1054600070B55E6804461D68F20714D5E90512D5CB
:105470001A6822F480721A60426D42F0010242659D
:1054800001229A60042380F85130002380F85030C4
:10549000C36903B19847B20616D5AB0414D5236887
:1054A0001A6822F400521A6020229A60636D43F059
:1054B00002036365042384F85130002384F85030DC
:1054C000E3690BB120469847300716D5290514D556
:1054D00023681A6822F400621A6008229A60636DD9
:1054E00043F004036365042384F85130002384F8F7
:1054F0005030E3690BB12046984772070BD56B0516
:1055000009D5236820461A6822F480621A600422B2
:105510009A60FFF7A2FFB00714D5A90512D523683A
:105520001A6822F400721A6002229A60636D636541
:10553000012384F85130002384F85030A3690BB163
:1055400020469847F20613D5EB0411D52368204670
:105550001A6822F480521A6010229A60636D6365A3
:10556000012384F85130002384F85030FFF776FF90
:1055700070BD000070B590F8503002460220012B3B
:1055800031D082F8510018200123214E00FB012068
:1055900082F85030036BD0E909451B0543EA054307
:1055A000456BC06A2343093C012C43EA455396BF2F
:1055B00000F07F4043EA006303431068A1B9416AE9
:1055C000012C01EA060143EA01034362136A836185
:1055D00003D8D36A23F07F4383620123002082F83B
:1055E000513082F8500070BDC569012C05EA0605EE
:1055F00043EA0503C3614FF0180303FB01210B6A63
:105600000361EAD8CB6A23F07F430362E5E700BF7A
:10561000F0FFCC002DE9F04107460D4614461E462A
:10562000FFF7BEFD80463B685A6FD2070AD544EAB1
:105630000624069A002044EA024444EA8514DC6603
:10564000BDE8F081FFF7ACFDA0EB0800B0F57A7F74
:10565000E9D90320F4E7037C0246012B5BD0036801
:105660000020C3F8C400C3F8C800C807916107D57B
:10567000D3F8C4006FEA10406FEA0040C3F8C400DA
:10568000880705D5D3F8C40040F4F810C3F8C40067
:10569000480705D5D3F8C80040F00100C3F8C8009A
:1056A000080705D5D3F8C80040F00200C3F8C800C9
:1056B000C80605D5D3F8C80040F00C00C3F8C800F0
:1056C000880605D5D3F8C80040F01000C3F8C8001C
:1056D000480605D5D3F8C80040F02000C3F8C8003C
:1056E000080605D5D3F8C80040F04000C3F8C8004C
:1056F000C80505D5D3F8C80040F08000C3F8C8003D
:10570000890505D5D3F8C81041F4F851C3F8C8107D
:105710000020107470470220704700007FB50D46CE
:105720000446002800F0EA80437C0BB9FEF726F817
:1057300003236374002300932368D3F8302442F0DA
:105740008072C3F83024D3F8303403F080730093B0
:10575000009BFFF725FD06462268D2F80C34D904D9
:105760006ED5D2F8303423F45E3323F4FE73C2F8DE
:105770003034D2F83014D5E90003DB0243EA800369
:10578000A86843EA004301200B43C2F830340023E9
:105790000193D2F8303443F00103C2F83034D2F828
:1057A000303403F001030193019BFFF7FFFCFFF787
:1057B000F7FC06462368D3F80C24D20548D500220E
:1057C000A16802925A6842F001025A605A6802F0D7
:1057D00001020292029A9A6822F0FF029A609A6885
:1057E0000A43E1689A60D3F8A02042F00202C3F8AD
:1057F000A020D3F8A02042F00402C3F8A020D3F8E0
:10580000A42022F00302C3F8A420D3F8A4200A4362
:10581000C3F8A420FFF7C4FC23680646D3F8A430DD
:105820009B0725D02368D3F8B03003F09403942B62
:1058300025D0FFF7B5FC801BB0F57A7FF2D914E0D4
:10584000FFF7AEFC801BB0F57A7F85D9032053E0CB
:10585000FFF7A6FC801BB0F57A7FABD9F6E7FFF720
:105860009FFC801BB0F57A7F02D900232374EDE7FB
:105870002368D3F8B03003F01403142BEFD16B6816
:1058800046F2A8111E4A0020012B38BF01235A43BB
:10589000AB6803F003039A402B684B43B2FBF3F26F
:1058A0002368D3F8181421F03F01C3F81814D3F873
:1058B00018140A436168C3F81824C3F8C400C3F875
:1058C000C80003905A68A06122F001025A605A6829
:1058D00002F001020392039AD3F8942022F003020B
:1058E000C3F89420D3F894200A4342F00102C3F88D
:1058F000942001236061637404B070BD0120FBE754
:1059000000093D0070470368D3F80C24D10710B597
:10591000044608D5D3F80824D20704D50122C3F8D9
:105920001024FBF79FFD2368D3F80C24910709D5B9
:10593000D3F80824920705D502222046C3F8102484
:10594000FBF7C0FDA369002B4ED02168D1F8BC2025
:10595000D1F8C4301A40D1F8C030D1F8C8100B408B
:1059600091B219B1616941F00101616112F4F81F4E
:1059700003D0626942F002026261D80703D562690E
:1059800042F004026261990703D5626942F008029D
:10599000626113F00C0F03D0626942F01002626181
:1059A000DA0603D5626942F020026261980603D5E7
:1059B000626942F040026261590603D5626942F0B1
:1059C000800262611A0603D5626942F480726261E4
:1059D00013F4F85F03D0636943F400736361636990
:1059E00013B12046FFF78EFF10BD027C0346012A4B
:1059F0000AD00268106B20F003001063106B0143A3
:105A000000201163187470470220704730B5037C82
:105A10000446012B69D0036808685A6B42F0010202
:105A20005A63D3F8002422F00102C3F80024D3F80B
:105A3000002442F00102C3F80024DA6822F00302D5
:105A4000DA60DA680243DA605A6922F007025A61C2
:105A50005869D1E906522A434D692A4302434868EE
:105A60005A611A6922F00F021A611A6902431A6117
:105A7000D3F8002422F00E02C3F80024D3F8002447
:105A800042EA40028868C3F800245A6E120C1204DD
:105A90005A665A6E02435A66D3F8002422F0F00286
:105AA000C3F80024D3F80004D1E903252A434D6A42
:105AB0002A430D6A896A2A4302430020C3F800245E
:105AC0009A6E22F001029A669A6E0A439A66D3F899
:105AD000082442F00102C3F80824D3F8082442F055
