:020000040800F2
:1000000000000820E9090008F13B0008F33B000864
:10001000F53B0008F73B0008F93B00080000000032
:10002000000000000000000000000000119D00081A
:10003000FB3B000800000000B19D0008159E000871
:10004000390A0008390A0008390A0008390A000884
:10005000390A0008390A0008390A0008390A000874
:10006000390A0008390A0008390A0008390A000864
:10007000390A0008390A0008390A0008390A000854
:10008000390A0008390A0008390A0008390A000844
:10009000390A0008390A0008390A0008390A000834
:1000A000390A0008390A0008390A0008390A000824
:1000B000390A0008390A0008390A0008390A000814
:1000C000390A0008390A0008390A0008390A000804
:1000D000390A0008390A0008390A0008390A0008F4
:1000E000390A0008390A0008390A0008390A0008E4
:1000F000390A0008390A0008390A0008390A0008D4
:10010000390A0008390A0008390A0008390A0008C3
:10011000390A0008390A0008FD3B0008390A0008BE
:10012000390A0008390A0008390A0008390A0008A3
:10013000390A0008390A0008390A0008390A000893
:10014000390A0008390A0008390A0008390A000883
:10015000390A0008390A0008390A0008390A000873
:10016000390A0008390A0008390A0008390A000863
:10017000390A0008390A0008390A0008000000009E
:10018000390A0008390A0008390A0008390A000843
:10019000390A0008390A0008390A0008390A000833
:1001A000093C0008390A0008153C0008390A000813
:1001B000390A0008390A0008390A0008213C0008F9
:1001C000390A0008390A00082D3C0008390A0008DD
:1001D000390A0008390A0008390A0008390A0008F3
:1001E000390A0008390A0008390A0008390A0008E3
:0801F000390A0008390A000871
:1002000010B5054C237833B9044B13B10448AFF350
:1002100000800123237010BD400300200000000077
:10022000E455030808B5034B1BB103490348AFF37A
:10023000008008BD0000000044030020E4550308CE
:1002400001F0FF01102A2BDB10F0070F08D010F887
:10025000013B013A8B422DD010F0070F42B3F6D18B
:10026000F0B441EA012141EA014122F007047FF0A4
:1002700000070023F0E80256083C85EA010586EAFB
:10028000010685FA47F5A3FA87F586FA47F6A5FA37
:1002900087F68EB9EED1F0BC01F0FF0102F0070243
:1002A00032B110F8013B013A83EA010313B1F8D1EE
:1002B0000020704701387047002D06BF35460338CF
:1002C000073815F0010F07D1013015F4807F02BF08
:1002D000013015F4C03F0130F0BC0138704700BF59
:1002E00081F0004102E000BF83F0004330B54FEAE7
:1002F00041044FEA430594EA050F08BF90EA020F54
:100300001FBF54EA000C55EA020C7FEA645C7FEAE6
:10031000655C00F0E2804FEA5454D4EB5555B8BF09
:100320006D420CDD2C4480EA020281EA030382EA7A
:10033000000083EA010180EA020281EA0303362D0C
:1003400088BF30BD11F0004F4FEA01314FF4801CDF
:100350004CEA113102D0404261EB410113F0004FF1
:100360004FEA03334CEA133302D0524263EB4303A8
:1003700094EA050F00F0A780A4F10104D5F1200E46
:100380000DDB02FA0EFC22FA05F2801841F10001A1
:1003900003FA0EF2801843FA05F359410EE0A5F175
:1003A00020050EF1200E012A03FA0EFC28BF4CF0A6
:1003B000020C43FA05F3C01851EBE37101F000455C
:1003C00007D54FF0000EDCF1000C7EEB00006EEB69
:1003D0000101B1F5801F1BD3B1F5001F0CD34908F3
:1003E0005FEA30004FEA3C0C04F101044FEA44524A
:1003F00012F5800F80F09A80BCF1004F08BF5FEAD1
:10040000500C50F1000041EB045141EA050130BDB0
:100410005FEA4C0C404141EB0101013C28BFB1F5C2
:10042000801FE9D291F0000F04BF01460020B1FA0D
:1004300081F308BF2033A3F10B03B3F120020CDAE0
:100440000C3208DD02F1140CC2F10C0201FA0CF0BE
:1004500021FA02F10CE002F11402D8BFC2F1200C23
:1004600001FA02F120FA0CFCDCBF41EA0C019040D9
:10047000E41AA2BF01EB0451294330BD6FEA040422
:100480001F3C1CDA0C340EDC04F11404C4F120020D
:1004900020FA04F001FA02F340EA030021FA04F31F
:1004A00045EA030130BDC4F10C04C4F1200220FA76
:1004B00002F001FA04F340EA0300294630BD21FAB4
:1004C00004F0294630BD94F0000F83F4801306BF7A
:1004D00081F480110134013D4EE77FEA645C18BF6E
:1004E0007FEA655C29D094EA050F08BF90EA020F05
:1004F00005D054EA000C04BF1946104630BD91EAFD
:10050000030F1EBF0021002030BD5FEA545C05D1FF
:100510004000494128BF41F0004130BD14F580043E
:100520003CBF01F5801130BD01F0004545F0FE41B2
:1005300041F470014FF0000030BD7FEA645C1ABFE7
:10054000194610467FEA655C1CBF0B46024650EA1E
:10055000013406BF52EA033591EA030F41F400214A
:1005600030BD00BF90F0000F04BF0021704730B5D0
:100570004FF4806404F132044FF000054FF00001A5
:1005800050E700BF90F0000F04BF0021704730B566
:100590004FF4806404F1320410F0004548BF40423B
:1005A0004FF000013EE700BF42004FEAE2014FEA90
:1005B00031014FEA02701FBF12F07F4393F07F4F6B
:1005C00081F06051704732F07F4208BF704793F06E
:1005D0007F4F04BF41F40021704730B54FF4607481
:1005E00001F0004521F000411CE700BF50EA010284
:1005F00008BF704730B54FF000050AE050EA01022D
:1006000008BF704730B511F0004502D5404261EB9C
:1006100041014FF4806404F132045FEA915C3FF4DD
:10062000D8AE4FF003025FEADC0C18BF03325FEA7A
:10063000DC0C18BF033202EBDC02C2F1200300FA2B
:1006400003FC20FA02F001FA03FE40EA0E0021FA50
:1006500002F11444BDE600BF7BB972B90029BEBFE8
:1006600000204FF0004106E008BF00281CBF6FF0DB
:1006700000414FF0FF3000F0B5B9ADF1080C6DE965
:1006800004CE002909DB002B1ADB00F04DF8DDF861
:1006900004E0DDE9022304B07047404261EB410110
:1006A000002B1BDB00F040F8DDF804E0DDE902235D
:1006B00004B0404261EB4101524263EB4303704797
:1006C000524263EB430300F02FF8DDF804E0DDE96C
:1006D000022304B0404261EB41017047524263EB98
:1006E000430300F021F8DDF804E0DDE9022304B063
:1006F000524263EB4303704753B94AB9002908BF1C
:1007000000281CBF4FF0FF314FF0FF3000F06AB9F6
:10071000ADF1080C6DE904CE00F006F8DDF804E058
:10072000DDE9022304B070472DE9F047089D0C462F
:10073000002B4ED194468C458646B2FA82F262D99D
:100740004AB1C2F12003914020FA03F30CFA02FCF3
:10075000194300FA02FE4FEA1C471FFA8CF6B1FB60
:10076000F7F44FEA1E4307FB141143EA014304FB6D
:1007700006F199420AD91CEB030304F1FF3080F023
:100780001281994240F20F81023C6344591A1FFAC8
:100790008EF3B1FBF7F007FB101143EA014300FBB6
:1007A00006F69E420AD91CEB030300F1FF3180F0EC
:1007B000FC809E4240F2F980634402389B1B40EA71
:1007C000044000211DB1D3400022C5E90032BDE83C
:1007D000F0878B4205D90DB1C5E90001002108461B
:1007E000F5E7B3FA83F1002946D1A34202D3904240
:1007F000C0F0F080861A64EB03030120002DE6D0E0
:10080000C5E90063E3E7002A40F09080A1EB0C0407
:100810004FEA1C481FFA8CF70121B4FBF8F64FEAA7
:100820001E4308FB164443EA044307FB06F09842C4
:1008300008D91CEB030306F1FF3402D2984200F200
:10084000CD8026461C1A1FFA8EF3B4FBF8F008FB85
:10085000104443EA044300FB07F79F4208D91CEB0E
:10086000030300F1FF3402D29F4200F2B080204621
:10087000DB1B40EA0640A5E7C1F120068B4022FAC7
:1008800006F71F4320FA06FC04FA01F343EA0C03BF
:10089000F44000FA01F8380C4FEA1349B4FBF0FEBB
:1008A0001FFA87FC00FB1E4449EA04440EFB0CF9C6
:1008B000A14502FA01F20AD93C190EF1FF3A80F083
:1008C0008480A14540F28180AEF1020E3C44A4EB4D
:1008D00009041FFA83F9B4FBF0F300FB134449EA5F
:1008E000044403FB0CFCA44507D93C1903F1FF3079
:1008F00067D2A44565D9023B3C4443EA0E40A0FBC5
:100900000293A4EB0C049C42CE469C4651D34ED09D
:1009100055B1B8EB0E0364EB0C0404FA06F6CB40B9
:100920001E43CC40C5E90064002150E7C2F120031A
:1009300020FA03F10CFA02FC24FA03F394400C436E
:100940004FEA1C4800FA02FE1FFA8CF7B3FBF8F0DE
:1009500008FB1031230C43EA014300FB07F19942E5
:1009600008D91CEB030300F1FF362CD299422AD997
:10097000023863445B1AA4B2B3FBF8F108FB1133ED
:1009800044EA034401FB07F3A34208D91CEB040427
:1009900001F1FF3613D2A34211D902396444E41A9B
:1009A00041EA004139E70446F0E6084606E7C84553
:1009B000AED2B9EB020E63EB070C0138A8E7314663
:1009C000EDE7034699E73046D4E7D6467FE7634430
:1009D00002384DE70646234608460FE7023E6344C9
:1009E00030E700BF704700BFDFF834D0002103E0DC
:1009F0000C4B5B58435004310B480C4B42189A4245
:100A0000F6D30B4A02E0002342F8043B094B9A421A
:100A1000F9D305F0E3FC33F061FF02F02FF97047E2
:100A200000000820C8B903080000002028010020A9
:100A30004003002098AB0120FEE77047704708B5DF
:100A400001F0AAFCBDE8084001F02CBC01F0A6BCF6
:100A5000174B1A6B42F0010210B51A6386B01B6B7C
:100A600003F001030093009B59B90123039111483E
:100A7000CDE90131022301A9049306F03DFB06B044
:100A800010BD0129FBD100240223019101A90948CD
:100A9000CDE903434FF48813029306F02DFB224661
:100AA0000F21062005F008FD062005F037FDE6E7DA
:100AB0000038024000000240002108B50846FFF758
:100AC000C7FF08BD0121024808B506F093FC08BD28
:100AD0000000024008B50020FFF7F4FF08BD4068A1
:100AE00070474160704700004FF0E022D2F8FC3DB3
:100AF00043F08073C2F8FC3D054B064AD3F8B01FA3
:100B00000A43C3F8B02F1A6842F001021A60704716
:100B1000001000E055CEACC5521A02EB5302B2FBF6
:100B2000F3F07047014B5868704700BF001000E0B9
:100B3000704710B504460C2132F0E1FF204610BD8D
:100B4000036810B51B69044631B19847A268636811
:100B50009B1A0344636010BD9847A060FBE7704791
:100B60007047000008B5FFF7A7FF024B00221A608C
:100B700008BD00BF5C03002070B50D46FFF7AAFF5B
:100B80000B4AC4B293785678117813F00100D370F1
:100B90009670517014700AD016F0010007D011F051
:100BA000010004D0E30756BF01200020287070BD6B
:100BB0005C03002010B50446042132F0A0FF20465B
:100BC00010BD704710B50446042132F098FF20464E
:100BD00010BD70477FB501238DF817204FF47A724E
:100BE000CDE901320DF1170200920A46014606488E
:100BF00006F0B6FD20B1044806F098FD02F01CF89E
:100C000007B05DF804FB00BF885600207FB50023C5
:100C10000A464FF47A718DF817300123CDE901317E
:100C20000DF1170100910146064806F073FE20B150
:100C3000044806F07BFD01F0FFFF9DF8170007B0A8
:100C40005DF804FB885600201FB54FF47A740092BB
:100C50000A4601460748CDE90134012306F05AFE51
:100C6000044620B1034806F061FD01F0E5FF20468F
:100C700004B010BD88560020F8B5134D0646134C3D
:100C80000F462B68207898476B6854209847C0B26D
:100C9000112809D06B68702098477023C0B2237068
:100CA000112803D00320F8BD54232370084BBE4203
:100CB0002CBF0C26012620781E70AB689847207840
:100CC000EB6898470020EEE7100000207103002039
:100CD0007203002008B54FF4F0714FF44870FFF72D
:100CE000CBFF074B10B901221A7008BD1B78002BEF
:100CF000FBD1044B6A21044A044833F079FA00BF5F
:100D00007003002094560308A7560308D156030821
:100D10002DE9F04F344A0546DFF8DCA085B01078A5
:100D2000DAF810309847287050B1304EA946304F4D
:100D30000DF10C0B02AC4FF000082B78984503D353
:100D4000002005B0BDE8F08F27485A462146DAF862
:100D50001430007808F101089847264BB446BE4687
:100D60001B7804360437190741BF2288BBF80010EE
:100D7000ABF8002021809A0741BF2288C2F5477254
:100D8000033222805B0756F8042C48BFBBF80030C2
:100D900034F8020B42BFC3F5EF730133ABF80030F8
:100DA00093B290423BF8021B8CBFC31A1B1A9BB232
:100DB000019357F8043C9AB29942019B8CBF8A1A5E
:100DC000521A92B21344052BC8BF46F8040CDCF843
:100DD0000030C8BF47F8041C29F8023FDEF8003095
:100DE000A9F80430A9E700BF7103002068030020C0
:100DF0006003002072030020100000207FB50B4B21
:100E00000E4615461C781CB90024204604B070BD5F
:100E100001A8FFF77DFF9DF80430002BF4D0BDF84A
:100E200006303360BDF80A302B60EEE77003002017
:100E3000032823D8DFE800F0020B121A104B4021E0
:100E40001A68B2FA82F252090E4806F0D9BA0C4B6F
:100E500080215A68B2FA82F25209F5E7084B022162
:100E600009489A68B2FA82F25209EEE7044B40212F
:100E70000648DA68B2FA82F25209E6E7704700BF24
:100E800074030020000802400024024000140240C5
:100E9000032823D8DFE800F0020B121A104B402180
:100EA0001A68003A18BF01220E4806F0A9BA0C4B86
:100EB00080215A68003A18BF0122F5E7084B022149
:100EC00009489A68003A18BF0122EEE7044B402116
:100ED0000648DA68003A18BF0122E6E7704700BF0B
:100EE0007403002000080240002402400014024065
:100EF00003280FD8DFE800F00206080B402106485F
:100F000006F083BA8021FAE702210448F8E740217D
:100F10000348F5E7704700BF000802400024024084
:100F20000014024008B5032813D8DFE800F0020AD5
:100F30000C0F4021084806F05DFA431E5842584104
:100F400008BD8021F6E702210448F4E74021044867
:100F5000F1E70020F1E700BF000802400024024052
:100F60000014024070B5084D00240126E0B2FFF7DE
:100F7000D9FF18B12B68012B18BF2E60013404353E
:100F8000052CF3D170BD00BF74030020012380F84D
:100F9000781080F87930704700207047416400393C
:100FA000024B18BF01211970704700BF579E0120E6
:100FB00000207047836B0BB10846184770474FF607
:100FC000FF707047406803689B691847014B1868B9
:100FD000704700BF9803002070470000F0B4002362
:100FE000104CC4F88430BFF34F8FD4F8803043F6F0
:100FF000E076C3F3C905C3F34E335B0103EA060C85
:101000002A464CEA8277013AC4F87472F9D2203B3E
:1010100013F1200FF2D1BFF34F8FBFF36F8FF0BCEE
:1010200001F0D2BA00ED00E008B501F04DFA024B34
:101030000422DA6008BD00BF00E100E010B50446FC
:1010400001F0D2FB94F84B3013B1024B01221A701D
:1010500010BD00BF04000020014B196001F03DBA33
:101060009803002010B5044619F0ECF923682046D7
:10107000D3F8AC30BDE81040184718F04EBC10B59E
:1010800004467C2132F03BFD204610BD024B00227D
:101090001A7018F07FBC00BF0400002038B5044669
:1010A000074D01F069FA0023284684F84A30FFF71B
:1010B0001BFD0123256184F87030024B636138BD4C
:1010C0008C030020880300200368044607B5D3F88A
:1010D00080309847236820469B6F984700F084FA39
:1010E000236820461B6F98470021292315220548B5
:1010F000009105F07AFF00F077FA236820461B6F15
:101100009847F8E7DC56002008B501F0D5F9002231
:1011100007215A2005F0D0F9002207216220BDE8FE
:10112000084005F0C9B9000090F834100D4B10B517
:1011300090F878401A788C4209D03AB90A490B4A9B
:1011400008881488108001220C801A7010BD002AB3
:10115000FCD0064A0449148808880C8010800022BC
:10116000F3E700BF509E01204E9E01204C9E0120BF
:1011700008B5094B1B888B4203D8084B1B88934248
:1011800005D9074B9E21074A074833F031F8074B32
:101190001980074B1A8008BD4C9E01204E9E0120ED
:1011A0003C5703089F570308E2570308529E01204B
:1011B000549E012008B501F049FB044B0422C3F8FA
:1011C0008C20BFF34F8FBFF36F8F08BD00E100E0AD
:1011D000034690F87A0018B1586803681B681847EE
:1011E0007047000070B50D4619460B4B1D6035B9B0
:1011F0000A4B40F2D2210A4A0A4832F0F9FFC0E90C
:101200000F52003A084B18BF01221A700368BDE85C
:101210007040D3F88C3018479803002027580308F3
:101220005F580308E2570308569E0120C0E90112E7
:10123000C3604FF480720023C0E912231C4A038567
:1012400080F82A30C362038680F85830436680F8FD
:1012500070304367C0E91A23164A70B5C0E90433F9
:10126000BDF81050BDF81460C0E90633C0E908337A
:10127000C0E90E33C0E91033C0E91433C0E91733B5
:101280008267B5420C4A10600C4A15800C4A1580E2
:1012900028BF00250B4A38BF012516800A4A80F86E
:1012A00034501680094A1370094B036070BD00BFAB
:1012B0000100000100000101589E01204C9E012008
:1012C000529E01204E9E0120549E0120509E0120DE
:1012D000B858030805F0CCB80128034607B50AD86A
:1012E0004B781522084800930B78002105F07DFE0D
:1012F00003B05DF804FB01910A5C002102480092F2
:10130000392205F083FEF3E7DC5600200C4B012266
:1013100013B51A70DF220B4C00215A703922019349
:10132000442320460093022305F070FE002135235C
:1013300015222046009105F058FE02B010BD00BFF6
:1013400084030020DC56002010B50446FFF7DEFFC2
:101350000F4B022220461B68C3F810240122C3F859
:101360001024D3F8082442F00102C3F80824D3F86B
:10137000082442F00202C3F80824064B1A68536B93
:1013800043F00303BDE81040536301F0A5B800BF6C
:10139000DC560020E0550020F0B589B0294B064608
:1013A00004AA03F1100715461868083353F8041C03
:1013B0001446BB4203C42246F6D1234C05EB8605F6
:1013C0002A233922019500210093204604234FF45B
:1013D000C87505F01BFE236800201C490290D3F855
:1013E0000424096822F00802C3F80424D3F8042472
:1013F00002F008020292029A154A126805FB0211D5
:10140000144AC2F8AC101449116101F10111516183
:101410001249C2F888101249C2F8B0100121516275
:1014200003902046D3F8042442F00802C3F80424B1
:10143000D3F8043403F008030393039B05F0C5FDC0
:1014400009B0F0BD00560308DC56002098030020C8
:101450009C03002000680140E201CA000300CA00AA
:101460009301400638B5124C226892F86A30013375
:1014700082F86A3000F0ACF80E4B1A780E4B1AB9AD
:101480002268197882F84A101B787BB10B4D2878B6
:1014900060B9FFF7CDFC206808B118F0D3FF084B06
:1014A00000201860FFF778FF01232B7038BD00BFC4
:1014B000589E0120569E012004000020A003002019
:1014C0009C03002008B50E4B1868022806DC01308A
:1014D0001860C0B2BDE80840FFF75EBF094B0022AC
:1014E0001A70094B186828B1084B1B7813B90368A8
:1014F0001B6A98470020BDE80840FFF7C9BC00BF41
:101500009C030020A0030020589E0120569E01202D
:10151000014608B5034B186801B1012118F0ACFF72
:10152000012008BD589E0120054B002205485A6045
:101530009A60054A1A60054B0360FFF713BB00BFB2
:101540008C030020880300205856030880560308A7
:101550000121002208B5084608F0A0F80A4B1860DF
:1015600028B90A4B28210A4A0A4832F041FE0022D3
:101570000421012008F05CF9074B186018B9074BEB
:101580002C21034AF0E708BDA8030020885903086E
:10159000D1590308005A0308A4030020525A030833
:1015A000024B4FF0FF31186808F0D0B8A8030020B4
:1015B000014B186808F006B9A8030020024B00216F
:1015C000186808F0C3B800BFA8030020FFF7F0BFF9
:1015D0000023034803491A46006808F06FB900BFAA
:1015E000A40300200800002013B50023074C01A924
:1015F0001A46206808F0A4F94FF0FF33002201A931
:10160000206808F09DF902B010BD00BFA4030020BF
:1016100003685B6C18470120704703689B6A184792
:10162000FEE700000E4B82B01A6B42F400021A6310
:101630001A6B02F400020192019A1A6942F4000244
:101640001A611A6922F400021A61064B064A9A616D
:10165000064ADA614FF08062054B9A6002B070472B
:1016600000380240F8560020FD1800082116000836
:1016700000E100E040F2EF3070470000054B4FF012
:1016800080620360044BC3F88820BFF34F8FBFF321
:101690006F8F7047F45B030800E100E010B504466B
:1016A0004FF45A61FFF7EAFF204632F028FA20464D
:1016B00010BD000008B50A2809D8DFE800F00610C0
:1016C0000E080808081010101000022008BD054B75
:1016D0009021054A054832F08BFD0020F6E70120F5
:1016E000F4E700BF945A0308AF5A0308FA5A0308F4
:1016F00038B50C46887FFFF7DDFF174BA58AE28AD5
:10170000586342EA054221695A64628BD963521BCD
:101710001A642568082D0ED19A611A6158620F4A21
:10172000207F42EA0062DA61E2681A620C4A59617B
:10173000D9601A6038BD0022D8611A61E1680A0ACE
:101740004809C1F3C40102F4784200F4FC6002438A
:101750000A439A63034AECE700B002400900010023
:10176000012302000123030008B50B280BD8DFE892
:1017700000F00612100A0A0A0A08080808080220DF
:1017800008BD0520FCE7054B6F21054A054832F0EE
:101790002FFD0020F4E70120F2E700BF945A030870
:1017A0004A5B0308FA5A03082DE9F04191F81D80BD
:1017B0000C464046FFF7D8FFA77F05463846FFF79F
:1017C000D3FF06463846FFF775FFA18A628B434B6D
:1017D000521A1A649A61228B521A1A61E28A586369
:1017E00042EA014221695A646268D963DA6020687A
:1017F000802828D0227F0FD8202866D0402864D0A7
:1018000004281AD045EA0265344BB84545F4003542
:10181000DD6160D0324A44E0B0F5807F04D0B0F59D
:10182000007FEFD12F4800E02F4840EA0262DA61E2
:10183000E2681A625E62596132E045EA026242F48D
:101840000032DA61F6E7A068021DDA62227F45EA1B
:10185000026545F40035DD615E625961017841B190
:10186000012921D0214B4FF48D71214A214832F0BA
:10187000BFFCDA69418822F47F42013922F010026C
:1018800042EA01220121DA61144BDA6942F02002B6
:10189000DA61DA699206FCD410229A600029B9D084
:1018A000154A1A60BDE8F081B2F1FF01DA6940889B
:1018B00022F47F4218BF0121013822F0100242EACF
:1018C000002242F01002DA61DEE745EA0262034BD1
:1018D00042F40032B5E742F20132E2E700B00240E2
:1018E00001230100090002000A000200945B0308C2
:1018F000AE5B0308FA5A030801230200024B1B687F
:10190000586803685B691847589E012070B5044603
:101910000A4B0C30002625466022606026726672F3
:1019200045F8203B294618F0FDFE04F55A63EE60A9
:1019300024359D42FBD1204670BD00BFF45B0308F7
:10194000034B1A68D207FCD423229A60704700BF69
:1019500000B00240094B5A69D2030AD5BFF34F8F3A
:1019600008440029A0EB010204DCBFF34F8FBFF352
:101970006F8F70472039C3F86822F2E700ED00E06E
:1019800030B5104C2568ED07FCD423250904FF2B46
:10199000A56041F001014FF0020565636164E063F9
:1019A0000AD00949656241EA0363E361074B226299
:1019B0006061E060236030BDE561039BA363044B7D
:1019C000F8E700BF00B0024009000100010002007A
:1019D0000100030030B50F4C2568ED07FCD423252A
:1019E0001204FF2BA56042F001024FF0020565636F
:1019F0006264E063E16008D01B0643F00213E36118
:101A0000054B65626061236030BD044BE3610123D7
:101A1000F9E700BF00B0024001000200020002FF2F
:101A200030B50B4C2568ED07FCD4232512041B06AA
:101A3000A56042F00102022543F40033656362644D
:101A4000E063E160E361034B65626061236030BD88
:101A500000B00240010002004069704790F8440065
:101A60007047036B23B9C06A003818BF0120704764
:101A70000120704780687047043010B50C460FC8CD
:101A800084E80F0010BD704708B5034A40F21221E8
:101A9000024B034832F0ACFB3C5C03083780030880
:101AA000975C030810B50446482132F028F8204618
:101AB00010BD00002DE9F0431C46436BADF51F7DC2
:101AC00005460E461746002B37D0002203A8DFF844
:101AD000A890CDE901320FF0EDFF4FF4F4725021E0
:101AE000249024A809F0B3FF3A46314624A80AF00E
:101AF00007FF012124A80AF0A5F8022324A88DF8E5
:101B0000D8300AF040F9BDF898322B9ABDF89C62A3
:101B10009342A89F28BF1346419A964203EB43087D
:101B2000A7EB430728BF1646479B9E4209D824A827
:101B30000AF0AAF824A809F0D7FF0DF51F7DBDE82B
:101B4000F083012201A924A80AF066F96B6B03EB6C
:101B50000800984201D83C44E6E759789A78C900D1
:101B600009EA022201F4FC610A4313F8031B42EA6A
:101B7000D10224F8022BECE700F8FFFF0A4A0260CA
:101B80000022C0E90522C0E90722C0E90922C0E914
:101B90000B22C0E90D12C0E90F2280F84420C0E9F1
:101BA0000322C0E9012270477C5F030810B40C4691
:101BB00011461A46036B3BB1036C806BE41A204458
:101BC0005DF8044B32F0D8BDC06AF8E7036B10B57E
:101BD00073B1036C826BC91A5318525C98785C78A5
:101BE0000004DB7840EA0420104340EA036010BDA3
:101BF000C36A5858FBE7036B43B1036CC91A836B84
:101C00005A18585C527840EA02207047C36A585A02
:101C10007047000070B50446006B0D461646D8B1FB
:101C2000E36B934208D209230D4A65210D4884F8DD
:101C300044300D4B32F0DCFA0368DB689847206BC8
:101C40003246A16B03681B69984710B90D2384F8CD
:101C50004430A06B256470BDE06A0844FBE700BF18
:101C6000065D0308975C0308F35C03082DE9F8435D
:101C7000436904462BB9234BAA21234A234832F057
:101C8000B7FA08228169FFF7C5FFA16943F2300660
:101C900046F2643704312046FFF798FFA3691844E1
:101CA000A36A00F108029A4206D30123002063616F
:101CB000236AA361BDE8F883636909300822013310
:101CC00020F0010120466361A161FFF7A3FFD4F872
:101CD000189020464946FFF78EFF09F10201804621
:101CE0002046FFF788FF09F1040105462046FFF76B
:101CF0006DFFB045D2D1BD42D0D10028CED0012059
:101D0000D8E700BF485D0308915D0308975C0308AE
:101D10002DE9F04F0446ADF51F7D8A4616468169D0
:101D200008229846FFF776FFA7692046391DFFF77E
:101D30004DFF07F10801024605462046FFF76AFFFE
:101D4000636B074633B93C4B40F2AB113B4A3C480E
:101D500032F04EFA002203A8CDE901320FF0AAFEBC
:101D60004FF4F4725021249024A809F070FE2A4602
:101D7000394624A80AF0C4FD012124A809F062FF15
:101D8000022324A88DF8D83009F0FDFFBAF90250DB
:101D9000479BAB4229D3BAF900904FEA4808BAF8FA
:101DA00004702B9B08FB05664F44BAF80250DFF81D
:101DB00094B03FB29F4228BF1F46BAF8063009EBE5
:101DC000490A1D44419B2DB29D4228BF1D46479B99
:101DD000AB4210D324A809F057FF24A809F084FED1
:101DE00001200DF51F7DBDE8F08F012201A924A877
:101DF0000AF012F8CCE7012201A924A80AF00CF895
:101E0000626B49465244B94202F1030201D346448F
:101E1000DDE712F8020C12F8013CC0000BEA0323C4
:101E200000F4FC60034312F8030C43EAD00326F8E5
:101E300011300131E7E700BFC45D03081A5E0308F3
:101E4000975C030800F8FFFF0129036838BF0121F0
:101E5000DB6A70B50D4604469847A84204D2236851
:101E60002046DB6A984705466B1EE669102220462D
:101E700006EB031606F10801FFF7CCFE06F1100190
:101E80002046FFF7A3FE236A043B0344C4E905533D
:101E900070BD0000002148222DE9F0410446816117
:101EA00080F84410FFF7B6FEA6690423624A314663
:101EB0002046FFF77BFE40B10323604AF22184F8FD
:101EC00044305F4B5F4832F093F906F10801042378
:101ED0005D4A2046A161FFF769FE30B10423574AED
:101EE000FA2184F84430594BECE706F10C01042345
:101EF000574A2046A161FFF759FE074638B105232E
:101F00004E4A40F2011184F84430524BDAE706F1B0
:101F100010012046FFF75AFE054620B94E4B40F20D
:101F20000711464ACEE706F1140804234B4A20461F
:101F30004146FFF73BFE002849D0062384F8443091
:101F40000423474A06F118012046FFF72FFE002818
:101F50003FD0072384F844304544424F0C222046AA
:101F60002946FFF757FE05F1080604233A462046A6
:101F70003146FFF71BFE94F84430002848D0002B70
:101F800048D1A36AAB4249D805F10C030435204679
:101F9000A3612946FFF71AFE3044294660622046B5
:101FA000FFF714FE0644042220463146FFF732FEB6
:101FB00004232D4A31462046FFF7F8FD002838D18A
:101FC0000123E6616361A3692362BDE8F081012713
:101FD000B6E7002FC0D006F120012046FFF7F6FD3E
:101FE0004FF47A7306F13001B0FBF3F060602046E5
:101FF000FFF7ECFD06F14001A0602046FFF7E6FD8B
:1020000006F14401E0602046FFF7E0FD2061A3E710
:10201000002BB9D00A2384F84430D6E7291D204686
:10202000FFF7D4FD85190C2220462946FFF7F2FD63
:1020300099E70B23EFE700BF745E0308925E030885
:10204000795E0308975C0308BF5E0308C45E03085B
:10205000DC5E0308E15E0308F75E0308035F030824
:10206000085F03080D5F0308125F0308C0E90A2137
:1020700000220263FFF70EBF10B500230446084696
:10208000E3620B6821639B689847A0622046BDE825
:102090001040FFF7FFBEF0B4069FBDF81050BDF82A
:1020A000146032B12BB10495CDE90567F0BCFFF7A0
:1020B00001BDF0BC704700002DE9F04F994643691F
:1020C00085B004460F4690462BB9294B7721294A03
:1020D000294832F08DF808228169FFF79BFDA66937
:1020E00020463146FFF787FDB11C83462046FFF7A7
:1020F00082FD311D82462046FFF768FD06F108018A
:10210000A36A054642189A4226D243F230039B4501
:1021100017D146F264339A4513D190B10246A161BA
:102120002046FFF777FD0E9B01462A462046CDF854
:102130000080CDE901933B46FFF7ADFF63690133B2
:102140006361A3692B4405B908330133626A23F044
:1021500001039342A36109D1012301206361236A32
:10216000A36180F0010005B0BDE8F08F0020F8E722
:10217000485D0308175F0308975C03080120704758
:102180004020704700EB81100830704700EB811051
:10219000083070470120704743F22C30704743F2FB
:1021A0002C3303FB01000830704743F22C3303FB50
:1021B000010008307047012070471020704700EB85
:1021C00001100830704700EB0110083070470846D6
:1021D00002F012BE034B10B50446036016F074FC07
:1021E000204610BD2460030810B50446FFF7F2FF37
:1021F0004821204631F083FC204610BD034B10B52A
:102200000446036016F060FC204610BDF05F030832
:1022100010B50446FFF7F2FF43F23431204631F0A7
:102220006EFC204610BD0000034B10B50446036051
:1022300016F04AFC204610BDBC5F030810B50446EA
:10224000FFF7F2FF1821204631F059FC204610BD5F
:10225000094B10B50446036000F54D502030FFF7E0
:10226000B9FF04F12C00FFF7C9FF04F11400FFF7D8
:10227000DBFF204610BD00BF5860030808B50248C8
:10228000FFF7E6FF08BD00BF7C12002010B5044632
:10229000FFF7DEFF43F20851204631F030FC2046C4
:1022A00010BD00002DE9F34101F034FD0024054686
:1022B00001F034FD2346014622462846009421F0D1
:1022C000E7FC274B274A2046274D1A6003F078FC8D
:1022D000264B274A27489A6021F042FC2B68BFF31F
:1022E0005B8FDB0736D4284631F00BFC90B3224CD1
:1022F000224F234B04F1140007F14C0604F12C0883
:1023000023606060C4F80880E760266116F0DEFB99
:102310001C4B4046636116F0D9FB1B4B3846E36209
:1023200016F0D4FB04F54053184A03F56A70C3F85D
:10233000602303F057FD224607F14801304603F0C1
:102340000BFD304602F058FD114831F06FFF284672
:1023500031F0E3FB0F4802B0BDE8F041FEF79EBE4E
:10236000BC9E012028040020781200204804002090
:102370002C0400200C0000207C120020DC450020F2
:1023800058600308BC5F0308F05F0308246003087B
:102390007D220008AC030020704700000148FEF7D2
:1023A00093BE00BFAC03002073B50E4C0E4B0F4E16
:1023B00020460F4D3360FFF7A9FA284626F07AFD34
:1023C0000C481FF021FC4FF448734FF4F072214683
:1023D0000948CDE9003233462A46FEF727FF02B00E
:1023E00070BD00BFD40400202C57030874120020D5
:1023F000480400202C040020AC0300200148FFF713
:102400003DB900BFD4040020002070478180704790
:10241000C1807047018170474181704770477047A4
:1024200070477047704710B4C4880368121B8488D3
:102430005B6D091B12B25DF8044B09B218474FF6E9
:10244000FF7383814FF0FF3303621368C361106031
:102450007047002070478B88838001207047704749
:1024600080F82610704790F826007047002210B5BB
:10247000B1F90840B1F90A10028042808480C1801D
:1024800010BD0022028042808280C28070470177A6
:10249000704780ED080A704780F82410704780F874
:1024A0002510704701207047983070478C30704776
:1024B0008430704770470000024B902283F85A2303
:1024C000704700BF00E100E0024B4FF080629A606D
:1024D000704700BF00E100E070477047124A53693F
:1024E000DB0370B51ED50023C2F88430BFF34F8FD5
:1024F000D2F8803043F6E074C3F3C900C3F34E331F
:102500005B0103EA0406014646EA81750139C2F817
:102510007452F9D2203B13F1200FF2D1BFF34F8F49
:10252000BFF36F8F70BD00BF00ED00E00163C0E935
:102530000D21704770477047704700EB81001146CE
:1025400040680368DB68184780F83C10704710B596
:102550000446482131F0D3FA204610BD10B5044698
:102560002C2131F0CCFA204610BD10B50446BC2118
:1025700031F0C5FA204610BD38B5044617F023FAED
:1025800023685D6E1EF0A0F901462046A847236827
:10259000074A2046D3F8885000230649A847064B2F
:1025A000064A5A60064A1A639A63064A5A6338BD55
:1025B000007017C000B80BC0444800208C480020B1
:1025C000000000C000B80B0017F0ADB917F00FBB4A
:1025D00038B504460D46406C4FF0FF3107F002F865
:1025E000606C07F02FF8242303FB0545002385F8D2
:1025F000283094F828300BB9236BA36338BD90F8CA
:10260000252012B103685B691847704708B531B1DE
:10261000044B4FF4B871044A044831F0E9FD90F8D6
:10262000290008BD6460030878600308026203089B
:1026300010B531B1064B4FF4B571064A064831F07A
:10264000D7FD406811460368BDE810401B6B184772
:1026500064600308456203080262030808B529B1F3
:10266000034B7921034A044831F0C2FDC06808BD1C
:1026700064600308F36303080262030810B50446AC
:1026800029B1194BA221194A194831F0B1FD052A87
:1026900015D8DFE802F0031115171C224068036803
:1026A0001B69984758B1012384F8293084F82C30ED
:1026B0000023C4E9043302E0002380F8293010BD70
:1026C0000362F5E70362012380F82A30F0E7002374
:1026D00080F8293001230362F1E7003B18BF012392
:1026E00080F82D30EBE700BF64600308A86503089D
:1026F0000262030810B50C4611461A462CB1064B6F
:102700009021064A064831F073FDC46040680368B2
:10271000BDE810409B681847646003087C670308A5
:102720000262030808B529B1054B8221054A064813
:1027300031F05EFDC0E90411C0E9063208BD00BFFA
:1027400064600308576903080262030890F83D308B
:1027500010B5044653B14FF0FF31406C06F042FF14
:10276000002384F83D30012384F83E3010BD90F8FA
:1027700025201AB190F8242002B11860704700009B
:1027800010B50446104629B1134BD021134A144802
:1027900031F02EFD94F8293033B1124B1B6893F8B9
:1027A0006B2063691344636194F82B300BB90120EB
:1027B00010BDA368036303685B699847002394F81E
:1027C0002C0084F82B300028F1D194F82D30002B08
:1027D000EED184F82900EBE764600308136B03086B
:1027E00002620308589E012010B5174C17F0DEF85E
:1027F00094F8293013B994F82A30ABB1E169D4E9DF
:102800000532534322694A4393420DD394F83C0066
:1028100038B19B1AB3FBF1F2994298BF02F1FF3233
:102820006262012384F82E300123206C84F83D304D
:1028300006F0C8FF94F83E302BB1606C06F002FF42
:10284000002384F83E3010BD44480020044B4FF074
:102850008062C3F88820BFF34F8FBFF36F8F70473C
:1028600000E100E0034690F8280070B5D8B90122D5
:102870009D6BD8609A624FF4807218619A8505F555
:102880003B22586102F500629861D8611862586273
:1028900083F82E00D3E90C463444A2420AD90B4BEC
:1028A00052210B4A03E00B4B40F2C5110A4A0B4878
:1028B00031F09EFC9D609A634FF4487381F83400B8
:1028C000CB864FF4F07308630B8770BD6B6E030803
:1028D000A66E0308B46C0308E46C030802620308E4
:1028E000002370B5124E05468380124B0360336897
:1028F00093F858200AB1D86C00B998680368DB6A6D
:1029000098473368B0FA80F4D86C640930B1036832
:10291000DB6A9847002808BF44F001042CB9064B35
:102920002C21064A064831F063FC284670BD00BFE2
:10293000589E01204C71030849700308A7700308D2
:10294000E070030870B5244E3568BFF35B8F15F057
:1029500001053FD1304631F0D4F800283AD01F4C61
:102960001F4B04F134002561E584A562A585C4E907
:102970000035C4E902551FF0A6FB04F158001AF017
:102980004DF9184B2046A365174B40F8843BFFF7E1
:10299000A7FF164B1648C4F884302433C4F890506F
:1029A000C4F88C306423C4F89C50C4F8A850C4E91F
:1029B00028350023C4F8AC30C4F8B030C4F8B430C3
:1029C000C4F8B8300B4BC4F8983031F02FFC3046C7
:1029D00031F0A3F8014870BD8447002088470020EB
:1029E000ECA803086C710308E4710308A0A80308AD
:1029F000B524000840A803082DE9F7430446012642
:102A00004FF4C8674FF0FF31206C06F09FFE4FF087
:102A1000FF31606C06F0E6FD94F82E3043B3656834
:102A2000D4F820802B6884F82B60B8F1000F23D0F5
:102A30005B6A414628469847002323622B684FF47F
:102A4000487200972846D3F814804FF4F073A168B9
:102A5000C047236984F82C0001332361F0B12B684F
:102A600028469B6A984701380023E06084F82E309E
:102A7000606C06F0E7FDC5E7626A002ADED02846F2
:102A8000D3E909939847616A01442846C8472369F6
:102A9000626AC4F8248013442361CFE70120E3E78E
:102AA000014808B5FFF7A8FF4448002038B515498C
:102AB00000251548FFF762F8144C154B2A462946A5
:102AC000012023604FF48073A563A387A38584F856
:102AD0003E5084F82E50C4E90C55C4E91055C4E9A1
:102AE0000155C4E90355C4E90555C4E90755C4E9CE
:102AF000095506F0D3FD2064284606F031FD6064D8
:102B000038BD00BFD44800208C4800204448002035
:102B1000307203080149002008F0F8BA11150008C6
:102B200008B5642006F004FDFBE7000000B54FF493
:102B3000407395B041F2883217480C93062306A9DA
:102B400006930023CDE90D330F930B931393CDE937
:102B5000113305F0FBFAE0B9022301224FF48001A2
:102B600004900D48CDE900331023CDE9023205234E
:102B70006A46CDE905134FF0407306A90F9341F261
:102B8000883305F0E4FB003818BF012015B05DF86C
:102B900004FB0120FAE700BF9455002030B595B042
:102BA00010220021022409A8072531F0DDFD14229E
:102BB000002102A831F0D8FD1D4B192107A81A6C7D
:102BC00042F080521A641B6C03F080530093009B08
:102BD000184B1A6842F440421A6001221B68139590
:102BE00003F440430193019B4FF48033CDE9072365
:102BF0004FF48003CDE90D434FF4D873CDE9114470
:102C0000CDE90F1305F036FC05F034F90F23002051
:102C10002946CDE902344FF4A053CDE904034FF423
:102C2000805302A8069305F017FE15B030BD00BF13
:102C3000003802400070004038B50D4A00250D4CA8
:102C40000D4B20462562C4E900230123C4E9045545
:102C5000C4E90253C4E9065504F013FD2946204691
:102C600004F03DFF29462046BDE8384004F05DBF32
:102C70000060004088560020684740202DE98048C9
:102C8000BBB01022002101242CA81C2631F06CFDC1
:102C9000032503F063FC4FF00050D04B40F20117C6
:102CA000ADF8B040CDE92D03CD4B2CA82F9303F008
:102CB00073FC4FF010438DF8B14000242CA82D93E5
:102CC0008DF8B8608DF8BB40ADF8BE4003F064FCF1
:102CD00002232CA88DF8BB508DF8B1301923ADF824
:102CE000BE708DF8B83003F057FC4FF040432CA86D
:102CF0008DF8B86004262D938DF8B1508DF8BB4047
:102D0000ADF8BE4003F048FC17232CA88DF8B16045
:102D10008DF8B8308DF8BB50ADF8BE7003F03CFCB8
:102D2000304603F029FCBFF34F8FBFF36F8FAD4ADE
:102D3000C2F85042BFF34F8FBFF36F8F536943F414
:102D400000335361BFF34F8FBFF36F8FC2F88440DE
:102D5000BFF34F8FD2F8803043F6E074C3F3C9005D
:102D6000C3F34E335B0103EA0406014646EA81756C
:102D70000139C2F86052F9D2203B13F1200FF2D191
:102D8000BFF34F8F536943F480335361BFF34F8FC9
:102D9000BFF36F8F03F048FB0125FFF7FFFE1422FE
:102DA00000212CA831F0E0FC8F4B4FF400418F48FC
:102DB0001A6B4FF4004600244FF0030B42F0100250
:102DC0004FF002088A4F4FF0040A1A634FF480490B
:102DD0001A6B02F010020392039A1A6B42F002027D
:102DE0001A631A6B02F002020492049A1A6B42F000
:102DF00040021A631A6B02F040020592059A1A6BA0
:102E000042F008021A631A6B02F008020692069A50
:102E10001A6B42F004021A631A6B02F00402079262
:102E2000079A1A6B42F480721A631A6B02F480726A
:102E30000892089A1A6B42F020021A631A6B02F089
:102E400020020992099A1A6B42F400721A631A6BF3
:102E500002F400720A920A9A1A6B42F080021A6314
:102E600001221B6B03F080030B930B9B04F0C8FA49
:102E70000022C0215F4804F0C3FA002240215E48CE
:102E800004F0BEFA00220221584804F0B9FA2CA935
:102E90005648CDE92C65CDE92E5504F02DF9C02317
:102EA0002CA95448CDE92C35CDE92E4B04F024F95A
:102EB00040232CA95048CDE92C35CDE92E4B04F008
:102EC0001BF92CA94948CDE92C85CDE92E4B04F0FE
:102ED00013F931462246454804F092FA142003F0D3
:102EE000C7FA31462A46414804F08AFA0A2003F01C
:102EF000BFFA2422214615A80E9431F035FC182281
:102F000021460FA84FF4807631F02EFC3422214662
:102F10002CA831F029FC2C2221461EA831F024FCDB
:102F2000364B64220CA93846C7E900340523C7E9AB
:102F300002A5CDE90C2303F053FD15A938461D94D5
:102F4000CDE91554CDE91744CDE91944CDE91B4429
:102F500003F0B2FF1C2121230F20CDE90F13192309
:102F60000FA9CDE911033846CDE9134403F067FFFB
:102F70005146384603F052FF42F21071384604F0D1
:102F8000A5F84FF48071384603F0C7FC4FF4007386
:102F90004FF4806C4FF4805E4FF400324FF4002108
:102FA0003846CDF8E080CDE92C634FF40063144E31
:102FB000CDE92EC34FF40053CDE930E34FF4803315
:102FC000CDE932934FF480234FF01009CDE934233B
:102FD0004FF08073CDE9361314E000BF12000003F8
:102FE0000100010100ED00E0003802400024024031
:102FF000DC5600200008024000140240006C014032
:10300000E05500202CA903F0D5FEC8231EA93846A0
:103010002895CDE92039CDE91E44CDE9224ACDE9F4
:103020002484CDE9264403F053FE2146384603F0BC
:103030003EFE214634221EA831F096FBCC4ACA201F
:103040004FF0CB0CC6F82080B48686F83640C6E92F
:1030500000244FF4F172C6E9090240F2E31230464F
:10306000C6E90BC2C6E90244C6E90445C6E90658EA
:1030700004F006FEFF214FF4806E4FF4F072C82377
:10308000304629921E94ADF8A8408DF8AA40CDE9AB
:1030900023140521CDE92128CDE925E122461EA9E9
:1030A000CDE91F34CDE9274304F0B6FE3268384637
:1030B000936923F00103936103F064FF29464046BE
:1030C00002F04AFF2823152221463846009403F0D7
:1030D0008CFF2CA9384636944FF44077CDE92C4428
:1030E000CDE92E44CDE93044CDE93244CDE9344434
:1030F00003F060FE32689F4E4FF4006193693046E2
:103100002B43936120229C4BB462CDF8B080C6E97A
:1031100000344023C6E904234FF4C073C6E90634E3
:103120004FF48053C6E9081307232CA9CDE92D3AA3
:10313000CDE92F38C6E9024ACDE9318B05F006FF0B
:103140004FF6FF721EA930460F94CDE91E59CDE906
:10315000205405F01BFF284603F08AF94FF6FF7252
:103160001EA93046CDE91E89CDE9205405F00EFF99
:1031700008234FF6FF721EA93046CDE92034CDE971
:103180001EB905F003FF4FF40C734FF6FF721EA932
:103190000F9330460F9B20952193CDE91EA905F092
:1031A000F5FE40F22A713046744E05F00EFF43F2F0
:1031B000D2024FF0204330461A6003F58053346248
:1031C000C6E900351923C6E90299C6E90437C6E9FC
:1031D000064404F069FF3297662741F288322CA931
:1031E00030462C97359431943994CDE93344CDE968
:1031F000374404F0ABFF002840F0AF80992441F23F
:1032000088322CA930462C9404F0A0FF002840F00E
:10321000A4804FF4807341F288322CA93046329357
:103220002C9704F093FF002840F0978041F28832F9
:103230002CA930462C9404F089FF0446002840F065
:103240008C804FF47A7003F013F94FF480031EAAB8
:103250002CA923934FF480733046CDF8809032939D
:1032600005232C934FF08073359341F28833CDE9D9
:103270001E45CDE9215405F06AF800286DD14FF4C0
:103280008073319041F288322CA9329305232C931C
:103290004FF08073CDE93300CDE93650CDE93800E9
:1032A0003046359304F052FF002856D141F288325F
:1032B00015A9304604F0EBFF00284ED14FF480737F
:1032C0003590319041F288323293062339902CA9FF
:1032D0002C93CDE93300CDE93700304604F036FFBA
:1032E00000283AD100232C4621954FF08075229377
:1032F0004FF480031EAA2CA9239305233046CDF852
:1033000080902C9341F288333595CDE91E8805F0E5
:103310001EF810BB4FF48073319041F288322CA913
:1033200032939DF854302C9443F040033595CDE909
:103330003300CDE93640CDE9380030468DF85430C1
:1033400004F004FF48B941F2883215A9304604F070
:1033500042FF10B9282003F08BF84FF4807341F23C
:1033600088322CA90548329335232C93002307E09B
:103370000068014060550020400100A094550020E5
:10338000CDE93333359331933993CDE9373304F0B5
:10339000DDFEE0B941234FF0400C4FF0010E2290CA
:1033A0001EAA2CA9B848CDE91EC31023CDE9203EA2
:1033B0004FF4800323934FF44073329305232C93EF
:1033C0004FF04073359341F2883304F0C0FFB723C8
:1033D0004FF440741E9300232494279323932B933C
:1033E000CDE92533CDE92933FFF7A0FB18BB41F226
:1033F00088321EA9A44804F0A9FEE0B90523319043
:10340000399015AA2C934FF0407315902CA9359341
:10341000012332941693CDE91830102317934FF4FB
:103420008003CDE93300CDE937001A9341F28833A8
:10343000954804F08CFF05234FF440764FF040741C
:1034400001252C93002341F288322CA98E48329614
:1034500035943193CDE93333CDE93653CDE9383363
:1034600004F074FE00284FD141F288321EA986482C
:1034700004F00DFF002847D11523319041F2883226
:103480002CA932962C933594CDE93300CDE93650F2
:10349000CDE938007C4804F059FEA8BB41F28832DF
:1034A0000DF17901784804F0F2FE68BBFFF73EFBAE
:1034B00050BB0223C02232962C9535943190CDE931
:1034C0003300CDE93630CDE9380092FAA2F203217B
:1034D0009DF87930B2FA82F26B4803F03F0301FAAB
:1034E00002F22CA9134341F288328DF8793004F0AE
:1034F0002DFE48B941F288321EA9634804F06BFEE4
:1035000010B9282002F0B4FF05234FF440764FF0A5
:10351000407401252C93002341F288322CA95A488B
:10352000329635943193CDE93333CDE93653CDE935
:10353000383304F00BFE00284BD141F288321EA92B
:10354000514804F0A4FE002843D11523319041F2E4
:1035500088322CA932962C933594CDE93300CDE9ED
:103560003650CDE93800484804F0F0FD88BB41F200
:1035700088320DF17901444804F089FE48BBFFF719
:10358000D5FA30BB0223072232962C953594319020
:10359000CDE93300CDE93630CDE9380092FAA2F218
:1035A00006219DF87930B2FA82F2374823F00703FA
:1035B00001FA02F22CA9134341F288328DF87930D6
:1035C00004F0C4FD28B941F288321EA92E4804F047
:1035D00002FE4FF4407300241EAA2C4D3293EC23BC
:1035E0002CA929482C934FF44063399433934FF41A
:1035F00040532F934FF04073CDE934430A23CDE974
:1036000037443193CDE91E4404F0F2FE204B2846A6
:10361000C5E90034C5E90244C5E90E44C5E91044D2
:10362000C5E9124403F045F80121284603F004F9E6
:10363000FFF702FBFDF701FA1648174B8480036081
:103640000123C0E90544036202F0D2FFFDF7F7F958
:10365000FDF7F4F905F0DEFE104A2146104805F0AA
:1036600013FF104B104A21461860104805F00CFF5C
:103670000F4B104A214618600F4805F005FF0F4B0D
:10368000186005F0E1FE1BE094550020F85600207C
:1036900000B002405057002000300240D8720308AA
:1036A000212B00085C550020B47203084D0A000865
:1036B0005855002090720308A12A00085455002094
:1036C000FEE700BF0268034B9A4201D102F0BEBE82
:1036D000704700BF00100040704700000D4B82B0E3
:1036E0000F216FF001001A6C42F080521A641A6CBC
:1036F00002F080520092009A5A6C42F480425A645E
:1037000000225B6C03F480430193019B02B002F042
:10371000D3BE00BF00380240026882B0084B9A4214
:103720000BD1D3F8302803F5006342F480521A63BA
:103730001B6B03F480530193019B02B0704700BFE1
:10374000003002400E4B07B502689A4215D1A3F52E
:10375000F04305215A201A6B42F400021A6300223A
:103760001B6B03F400030193019B02F0A5FE5A209A
:1037700003B05DF804EB02F0D1BE03B05DF804FBCA
:1037800000B0024010B588B004461422002103A8FE
:1037900030F0EAFF2268154B9A4225D103F54C43DD
:1037A00003A913485A6C42F000625A645A6C02F042
:1037B00000620192019A1A6B42F400721A630422A9
:1037C0001B6B03F400730293029B0223CDE90323D6
:1037D0000D23079303F090FC62200022052102F0E4
:1037E0006BFE622002F09AFE08B010BD006C014032
:1037F00000240240F0B5ADB004461422002103A815
:1038000030F0B2FF9022002108A830F0ADFF22680E
:10381000254B9A4246D14FF4003308A8089305F08F
:10382000E7F808B1FFF758FF204C122701260325BF
:10383000236B03A91E4843F002032363236B03F0A9
:1038400002030093009B236B43F008032363236B65
:1038500003F008030193019B8023CDE903370B2379
:10386000CDE90565079303F047FC4FF4805303A9A6
:103870001048CDE903370423CDE90565079303F02C
:103880003BFC236C5F200022052143F080732364FE
:10389000236C03F080730293029B02F00DFE5F2005
:1038A00002F03CFE2DB0F0BD006000400038024048
:1038B00000040240000C0240026808B50B4B9A421B
:1038C00012D10B4A80210B48136C23F080731364D0
:1038D00003F0F6FC08484FF4805103F0F1FC5F2040
:1038E000BDE8084002F028BE08BD00BF00600040EF
:1038F0000038024000040240000C024010B5A6B09F
:1039000004469022002102A830F02EFF2268144BBA
:103910009A4222D10823072002934FF4C0730793E1
:103920000223CDE90830012302A80C9305F060F8CA
:1039300008B1FFF7D1FE0B4B582003215A6C42F01F
:1039400080625A6400225B6C03F080630193019BE8
:1039500002F0B2FD582002F0E1FD26B010BD00BF1C
:103960000068014000380240142200212DE9F04196
:103970008AB004460DEB020030F0F6FE22683A4BA6
:103980009A426ED1394B0225032409269A694FF0D9
:10399000040805A9364842F0020200279A619A6994
:1039A00022F002029A619A6B42F002029A639A6BC9
:1039B00002F002020092009A1A6B42F010021A639F
:1039C0001A6B02F010020192019A1A6B42F0020285
:1039D0001A631A6B02F002020292029A1A6B42F008
:1039E00004021A631A6B02F004020392039A1A6B20
:1039F00042F008021A631B6B03F008030493049B54
:103A0000CDE90585CDE9084603F076FB402305A9FD
:103A10001848CDE905350123CDE907340A23099378
:103A200003F06AFB4FF4C06305A913480996CDE97A
:103A30000535CDE9077403F05FFB05A90D4809962C
:103A4000CDE90585CDE9077403F056FB4FF400532B
:103A500005A90A480996CDE90535CDE9077403F0B3
:103A60004BFB0AB0BDE8F081001000A00038024016
:103A7000001002400004024000080240000C024016
:103A8000F0B5002387B003932A4B1E68002E4FD158
:103A90000122022703250C241A6001A9264B27487E
:103AA0009A6B42F001029A639B6B03F0010300934F
:103AB000009B4FF68373CDE90454CDE9013703F041
:103AC0001BFB48F2331301A91D480594CDE90137CA
:103AD000CDE9036503F010FB4CF2037301A919480B
:103AE0000594CDE90137CDE9036503F005FB40F20C
:103AF000FF6301A914480594CDE90137CDE90365B9
:103B000003F0FAFA4FF63F0301A910480594CDE9F6
:103B10000137CDE9036503F0EFFA4FF62C7301A9E5
:103B20000B480594CDE90137CDE9036503F0E4FACC
:103B300007B0F0BD7457002000380240001002406A
:103B400000180240000C0240002002400014024015
:103B5000001C0240214B1A6C42F0100270B51A642E
:103B600088B01B6C054601A903A803F0100302935B
:103B7000029B04F01FFF069B4BBB04F00BFF184E8B
:103B8000184B336040F2E733F360174BB0FBF3F3AD
:103B9000013B3046736000233361B360B36105F0CD
:103BA0007BFB044680B9304605F028FA044658B934
:103BB000362002F0B3FC0F2D0DD8224629463620C0
:103BC00002F07AFC094B1D60204608B070BD04F07D
:103BD000E1FE4000D3E70124F6E700BF00380240D1
:103BE000785700200010004040420F0040000020A5
:103BF0007047FEE7FEE7FEE7FEE77047014805F085
:103C00003FBA00BF78570020014804F0A8B800BFB1
:103C1000E0550020014802F084BD00BFF8560020A6
:103C2000014803F055BF00BF88560020014802F04C
:103C3000CCBF00BFDC5600200120704708B530F033
:103C400047FE162303604FF0FF3008BD08B530F083
:103C50003FFE16230360FEE770B50D4614460E4680
:103C6000731B9C4201DC204670BDAFF3008006F858
:103C7000010BF5E770B50D4614460E46731B9C42CA
:103C800001DC204670BD16F8010BAFF30080F5E7AC
:103C90004FF0FF3070474FF4005300204B607047E7
:103CA00001207047002070470A4A116808B5034692
:103CB00009B9094911601068694603448B4206D965
:103CC00030F006FE0C2303604FF0FF3008BD136098
:103CD000FCE700BFC457002098AB0120704710B527
:103CE000044604212FF00BFF204610BD012908B522
:103CF00006D0022908D059B901F0AEFF006808BD0E
:103D000001F0AAFF4068FAE701F0A6FF8068F6E735
:103D10000020F4E700487047107303080E20704736
:103D2000806A7047704770477047704770477047A8
:103D300030B585B00368044601816D460146D3F86D
:103D400084303C342846984795E8070084E807000B
:103D500005B030BD30B585B00368044641816D467D
:103D60000146D3F884303C342846984795E807004C
:103D700084E8070005B030BD0022028042808280C6
:103D8000C280704780F836107047036870B50446EB
:103D90001B6B154698472368204629465B6EBDE895
:103DA0007040184700207047806C7047704770471C
:103DB000704770477047704790F82C304BB100F156
:103DC0006C021268C2653BB100F174031B680366A4
:103DD000704700F16802F4E700F17003F6E77047FE
:103DE000704770477047704730B444680346C268F4
:103DF0009B68551004EB6200D20748BF625930BC83
:103E000048BFD35818470346406830B19A681AB97A
:103E1000D86800F0010070470120704770B4456811
:103E20000346C4689B68661005EB6400E40744BF62
:103E3000AC59E35870BC18470346406830B19A68E3
:103E40001AB9D86800F0010070470120704730B4FB
:103E500044680346C2689B68551004EB6200D207B1
:103E600048BF625930BC48BFD35818470346406822
:103E700030B19A681AB9D86800F001007047012083
:103E8000704790F82D3080F8A43080F85A30704791
:103E900090F82D3080F85A30704710B504467C30C9
:103EA00094F82C303BB104F17A011AF0FDF8204669
:103EB000FFF782FF10BD04F17801F6E710B5044664
:103EC00008212FF01CFE204610BD10B504464C21E1
:103ED0002FF015FE204610BD10B5044678212FF0B6
:103EE0000EFE204610BD10B50446A8212FF007FE97
:103EF000204610BD10B5044610212FF000FE2046CC
:103F000010BD10B5044610212FF0F9FD204610BD5C
:103F100010B5044610212FF0F2FD204610BD10B55B
:103F200004464FF498612FF0EAFD204610BD08B515
:103F3000FEF765FB08BD10B50446006B50B1036881
:103F4000DB68984730B1206B21460368BDE810401C
:103F50009B68184710BD00F55973994270B5044627
:103F60000E46154603D103681146DB6A984704F1F3
:103F700098039E4206D12368294620461B6BBDE864
:103F80007040184770BD00F58B628A4202D1036809
:103F90005B6B184770470B7970B504460D4690F877
:103FA0002C600BB916B170BD002EFCD0B3FA83F3B0
:103FB00020465B0984F82C302368D3F88C3098476E
:103FC000236820465B699847002EECD02B79012BA3
:103FD000E9D123682046D3F88830BDE870401847FF
:103FE000036870B55E6B0446114B8DB21B682BB92C
:103FF000104B6C21104A114830F0FAF81049828DAC
:104000000988914203D80F4B6D210B4AF3E713F84F
:1040100012200D4B1B6853F8220003681B6B984756
:10402000291A3346204609B2BDE87040184700BF40
:10403000B09E0120287403086A740308A57403085D
:10404000B49E0120EC740308B89E012000F5C670F0
:10405000884208B505D11CF037FCBDE8084000F0E7
:10406000EBBE08BD00224FF0FF318260C0E90021A5
:104070007047036870B504461B6B15469847236864
:10408000204629465B6BBDE8704018470B882DE938
:10409000F041A0F87830044613889046B0F90850F3
:1040A000A0F87A3010461FF007FEB4F90A30074630
:1040B00005EBD57503EBD3734046C5F34F0507EB0E
:1040C000D777C3F34F061FF02BFE00EBD070A5EBA4
:1040D0006701A6EB600204F17C0009B212B2FFF79F
:1040E000C8FF23682046D3F88C30BDE8F04118475C
:1040F00070B504461D46BDF91060FFF7BAFF23688E
:10410000294620469B6B9847236831462046DB6B47
:10411000BDE87040184700000022C0E90122C0E954
:104120000322C0E90522C0E907224FF4807282848D
:10413000014A0260704700BF8075030810B504464D
:104140002622002130F010FB2046FFF7E5FF044B4C
:1041500020462360FF2384F826300023A36210BD8D
:10416000C8AC030810B504462622002130F0FCFA42
:104170002046FFF7D1FF0A4B4FF47F022046A3628F
:104180004FF6FF73A3850023C4E90C32054A238749
:1041900022604FF0FF32E363A364C4E9102310BD33
:1041A000E8750308F87503084FF47F43F7B5838576
:1041B00040F201130025064683840446234B4FF644
:1041C000FF7785620563C0E90155C0E90355C0E981
:1041D0000555C0E9075546F8343B3046FFF7AEFFBA
:1041E0001B4B2A462946636330462566A4F8645073
:1041F000C4E91A55C4E91C55FFF73BFF3146204678
:10420000264614F043FE134B2622294646F87C3BF3
:104210004FF0FF333046ADF80470A36730F0A4FAD6
:104220003046FFF779FF0C4B01A93046E367BDF834
:10423000043084F8A470A4F8A23019F035FF2046A9
:10424000314614F023FE204603B0F0BD8876030803
:1042500018AE03082477030880AE03082DE9F04F59
:10426000044693B000251EF0D5FAA2469E4B04F1F9
:104270006C0904F198074FF6FF76E5634AF8403B76
:10428000504604F5C678FFF759FF10A94846ADF827
:10429000406018F009FE38464FF4F07B15F0A4FAA0
:1042A0004046FFF781FF04F50D7318460493FFF7AE
:1042B00059FF04F5207318460593FFF753FF04F5E3
:1042C000337318460693FFF74DFF04F546731846FF
:1042D0000793FFF747FF04F559731846039315F04A
:1042E00083FA04F58B63262229461846089330F09A
:1042F0003BFA0898FFF710FF4FF001032A46A4F895
:10430000866484F87C342946784B5046A4F8886447
:10431000C4F85834764B84F88A64C4F89034754BEA
:10432000A4F88C64261DC4F89834734BC4F88054E8
:10433000C4F8A034714B84F88454C4F8A834704B8A
:10434000C4F89444C4F8B0346E4BC4F89C54C4F818
:10435000B8344FF44873C4F8A444C4F8AC54C4F857
:10436000B444C4F8BC54CDF800B0FFF7C1FE4FF020
:104370007F4351463046A36614F088FD10A9484695
:10438000ADF8405019F090FE4FF448732A46294684
:104390004846CDF800B0FFF7ABFE294648464FF03F
:1043A000070B18F03CFD4946304614F06FFD3846C7
:1043B000D82240F2B511FFF75CFE4FF006033846F5
:1043C0000FAAADF838304FF004030EA9ADF83C3019
:1043D0004FF00503ADF8403010AB15F05FFA4FF425
:1043E000967338460B221021CDE900532B4615F069
:1043F0005CF964223846294615F015F838462946F6
:1044000014F0D9FF04F59463394648273046C4F8C0
:104410008831099314F03AFD29464D232A4604F5C4
:10442000E0700097FFF764FE374B384A4046C4F807
:10443000F43103F54C53A4F8F0B13333C4F8F83138
:10444000334BC4E97F23D4F88C31D3F88C309847B0
:104450000923404610AA0FA9ADF83C30ADF8403012
:10446000FFF714FE4FF00A1340F2811240461C2160
:10447000C4F80C3204F59263C4F8BC314D230097A4
:104480000AAFFFF735FE41463046DFF8988014F05A
:10449000FDFC3F2226210498FFF7EBFD4FF07F4300
:1044A00004993846C4F86432D4F83432A4F8685217
:1044B000D3F88430984704F51C7397E8070083E825
:1044C0000700D8F800202AB9124B6021124A13487D
:1044D0002FF08EFEDFF850A0BAF80020062A25D86B
:1044E0000F4B61210C4AF2E70C780308E0AA03089D
:1044F000C47703084D400008DC770308573F0008E5
:10450000F4770308873F0008996600FF09C3E8FFB6
:10451000996633FF287403082A750308A5740308F5
:10452000EC740308B09E0120B49E0120DFF82892AD
:104530000621D9F8000001F07FFBC4F87C02049842
:1045400019F0D6F9834B10A904981093ADF844B034
:1045500019F0EEF90499304614F098FC88222621CF
:104560000598FFF786FD4FF07F4205993846C4F85D
:10457000B022D4F88022A4F8B452D2F88420904714
:1045800004F52F7C97E807008CE80700D8F8002096
:10459000002A99D0BAF80020042AA1D90421D9F818
:1045A000000001F049FBC4F8C802059819F0A0F911
:1045B000684B4FF0050210A905981093ADF8442000
:1045C00019F0B6F90599304614F060FCD022262186
:1045D0000698FFF74EFD4FF07F41D4F8CC223846C5
:1045E000C4F8FC12D2F884200699A4F8005390472E
:1045F00004F5427C97E807008CE80700D8F8002013
:10460000002A3FF461AFBAF80020022A7FF668AFB3
:104610000221D9F8000001F00FFBC4F8140306983A
:1046200019F066F94B4B032210A906981093ADF8C8
:10463000442019F07DF90699304614F027FC40F229
:104640001D1224210798FFF714FD4FF07F41D4F885
:1046500018233846C4F84813D2F884200799A4F8E0
:104660004C53904704F5557CD8F8003097E8070084
:104670008CE80700002B3FF427AFBAF80030002B7E
:104680003FF42EAF2946D9F8000001F0D5FAC4F85E
:104690006003079819F02CF92E4B10A90798109376
:1046A0004FF00103ADF8443019F042F90799304654
:1046B00014F0ECFB0398472240F2B511FFF7D9FC48
:1046C0004FF006034FF005020EA9ADF838304FF059
:1046D00004030398ADF83C3010ABADF840200FAAAE
:1046E00015F0DCF84FF4967303980B221021CDE9F6
:1046F00000532B4614F0D9FF64222946039814F086
:1047000092FE2946039814F056FE099B0399304601
:10471000C4F8543414F0BAFB0898872240F2B5115B
:10472000FFF7A7FC082310AA0FA90898A4F88CB4D7
:10473000ADF83C30ADF840B019F00AFB04F59663D3
:1047400030460899C4F8803414F0A0FB204613B01A
:10475000BDE8F08FE8750308BC9E012013B5002466
:1047600051B1036801AA01948DF803409C680DF1D2
:104770000303A04702B010BD0846FBE7C08970479D
:10478000008A7047C088704780887047807A00F040
:104790007F007047807AC009704700207047000092
:1047A0009FED010A704700BF00000000704770478E
:1047B00000F598730868496803C3704770477047ED
:1047C00041607047002210B5B1F90840B1F90A10F4
:1047D000028042808480C18010BD70477047000015
:1047E000064BC0F84801C0F84C310023C0F85031E6
:1047F00000F5A273C0F84031704700BF914A00082D
:1048000001230372704770477047704770477047C5
:1048100001464068036810315B6E184770B5054665
:1048200040680368DB69984704463CB9686805F14D
:1048300010010368BDE870401B6E1847A188204630
:10484000AB89C91A236809B21B6B9847A469ECE7C6
:10485000704710B441680346C2689B68541001EB6E
:104860006200D20748BF0A595DF8044B48BFD358CD
:1048700018470346406830B19A681AB9D86800F002
:10488000010070470120704710B504460C212FF03D
:1048900036F9204610BD10B5044610212FF02FF92F
:1048A000204610BD10B504464FF4AE712FF027F925
:1048B000204610BD10B5044638212FF020F92046BF
:1048C00010BD10B5044628212FF019F9204610BD5F
:1048D00010B5044640212FF012F9204610BD10B546
:1048E0001BF0F2FF0368BDE81040DB6B18470000C7
:1048F00037B50546807A01306B7AC0B29842A8720B
:1049000005D901232B720023AB7203B030BDB5F97A
:104910000C200021B5F90E401EF02EF9C30706D574
:1049200000284FF6FF73C8BF0123184400B2AB7ACA
:10493000041BE881012BA4B206D1174B1B781BB1D5
:104940001BF0C2FF1BF0C6FF0023144AADF8023073
:104950001288EB891A445B42ADF80430104BADF875
:1049600000201B88ADF806301BF0AEFF02AA0368DA
:1049700012E906001B6C984768680368DB69984772
:104980000546002DC1D0A98828462B6821441B6B01
:1049900009B29847AD69F4E7569E01204C9E01206C
:1049A0004E9E0120054B01461B782BB1406818B183
:1049B00003680C315B6E1847704700BF579E01209B
:1049C000037A70B50546BBB940680368DB69984750
:1049D00004463CB9686805F10C010368BDE8704005
:1049E0001B6E1847A18820466B8FC91A236809B22D
:1049F0001B6B9847A469ECE770BD10B50446D0F86E
:104A0000400158B10368DB68984738B1D4F84001D9
:104A100003689B6898470023C4F8403110BD70B507
:104A2000044690F83900013094F83830C0B298420A
:104A300084F8390005D901232372002384F8393022
:104A400070BDB4F93A2000211EF096F8C30706D5D0
:104A500000284FF6FF73C8BF0123184400B2238A11
:104A6000C01AA08760680368DB69984705462DB9BE
:104A700060680368BDE870405B691847A9882846EC
:104A8000A38F19442B6809B21B6B9847AD69EEE7F9
:104A90002DE9F14FD0E9556A0746B06803681B6AF3
:104AA0009847B0F5887F05D2444BA321444A454836
:104AB0002FF09EFB706803681B6A98470F2803D885
:104AC000414BA4213E4AF2E7F06803681B6A98470D
:104AD0000B2803D83D4BA521394AE8E7DFF8F490CD
:104AE0001BF0F2FE04301BF055FFD9F8000010B1A6
:104AF0000368DB689847D9F8000010B103681B68A9
:104B00009847DFF8D480D8F8000010B103685B69DB
:104B10009847D7F83C0110B103685B689847D8F80C
:104B2000000010B103681B689847D7F83C0110B12A
:104B300003689B689847F06800214FF0000B0368FA
:104B40005B6A9847224B0446C0F804B080F808B06E
:104B500059460360B06803685B6A9847054601F0F0
:104B600035F97068594603685B6A984706462946D6
:104B700001F00AF9331DC7F83C612846C9F8004026
:104B8000C8F80050CAF800302B68C6F808A0DB68E7
:104B9000EE639847336830461B689847214628469D
:104BA0001DF0E4FF236820461B69984723682046D0
:104BB0005B6901B0BDE8F04F184700BF44780308B7
:104BC000D2780308AC790308F3790308967A0308CE
:104BD000C87E0308A09E01209C9E01202DE9F74F6E
:104BE000D0E955BA0746DBF8080003681B6A984706
:104BF00043F22B33984205D8544BA321544A5548CD
:104C00002FF0F6FADBF8040003681B6A98470F28B8
:104C100003D8514BA4214E4AF1E7DBF80C0003689E
:104C20001B6A9847372803D84C4BA521484AE6E72A
:104C3000DFF83C911BF048FE04301BF0ABFED9F8C6
:104C4000000010B10368DB689847D9F8000010B184
:104C500003681B689847DFF81C81D8F8000010B182
:104C600003685B699847D7F83C0110B103685B683B
:104C70009847D8F8000010B103681B689847D7F828
:104C80003C0110B103689B689847DBF80C000021D9
:104C9000002503685B6A9847314B04464560036012
:104CA0004FF4A0538572294603814FF48073C58168
:104CB00043632C4B03612C4B1B885A421BB28281ED
:104CC0002A4AB2F90020C0E90555C0E90755C0E9F4
:104CD0000955C0E90B55009210302A46FFF708FA33
:104CE000DBF80800294603685B6A9847064601F02E
:104CF000ADF8DBF80400294603685B6A984705466F
:104D0000314601F081F82B1DC7F83C513046C9F8F7
:104D10000040C8F80060CAF800303368C5F808A041
:104D2000DB68F56398472B6828461B68984721463F
:104D300030461DF01BFF236820461B6998472368F7
:104D400020465B6903B0BDE8F04F1847447803087C
:104D5000397B0308AC790308F3790308967A0308D2
:104D6000EC7E0308F47D03084C9E01204E9E01203A
:104D7000A09E01209C9E0120044B1B6893F85820A4
:104D80000AB1D86C00B99868704700BF589E0120DE
:104D9000F8B5174604460E461BF0CEFE124B002512
:104DA0001C602946114B2360114BC4E95135114B4E
:104DB0001868C4E953550368C4E94F559B68C4E9B2
:104DC00055769847284600F0FBFEFFF7D5FF25F003
:104DD000C4FEFFF7D1FF25F03BFFFFF7CDFF25F025
:104DE00043FF2046F8BD00BFAC9E0120747E03083F
:104DF0005C7E0308589E0120064BC0F84801C0F8AD
:104E00004C310023C0F8503100F5A273C0F8403196
:104E1000704700BF914A0008064BC0F84801C0F82F
:104E20004C310023C0F8503100F5A273C0F8403176
:104E3000704700BFDD4B0008064BC0F84801C0F8C2
:104E40004C310023C0F8503100F5A273C0F8403156
:104E5000704700BF21500008064BC0F84801C0F859
:104E60004C310023C0F8503100F5A273C0F8403136
:104E7000704700BFE54E0008F7B5164B0026054603
:104E8000044646600F46067245F80C3B284617F06C
:104E9000A1FF114B84F838701B7884F83960A6871D
:104EA00023B901232372204603B0F0BD0B4B3246D9
:104EB0000B4F3146B3F9003028460093B7F9003064
:104EC000FFF716F9284617F001FF3B885B4263871E
:104ED000E9E700BF107F0308579E01204E9E012086
:104EE0004C9E01202DE9F047D0E9556A0746B0688D
:104EF00003681B6A984740F2C343984205D8414B68
:104F0000A321414A41482FF073F9706803681B6A76
:104F100098470F2803D83E4BA4213B4AF2E7F0689C
:104F200003681B6A98473F2803D83A4BA521364AA5
:104F3000E8E7DFF8E4901BF0C7FC04301BF02AFD23
:104F4000D9F8000010B10368DB689847D9F8000071
:104F500010B103681B689847DFF8C080D8F80000DC
:104F600010B103685B699847D7F83C0110B103683A
:104F70005B689847D8F8000010B103681B68984731
:104F8000D7F83C0110B103689B689847F06800218E
:104F900003685B6A984714210446FFF76DFFB06809
:104FA000002103685B6A9847054600F09FFE706821
:104FB000002103685B6A98470646294600F074FEA4
:104FC000331DC7F83C612846C9F80040C8F80050B6
:104FD000CAF800302B68C6F808A0DB68EE63984773
:104FE000336830461B689847214628461DF0BEFDB1
:104FF000236820461B699847236820465B69BDE803
:10500000F047184744780308227C0308AC7903086A
:10501000F3790308967A0308A09E01209C9E012044
:105020002DE9F047D0E9556A0746B06803681B6A66
:10503000984743F22B33984205D8414BA321414A6C
:1050400041482FF0D5F8706803681B6A98470F280D
:1050500003D83E4BA4213B4AF2E7F06803681B6A81
:1050600098473F2803D83A4BA521364AE8E7DFF8AE
:10507000E4901BF029FC04301BF08CFCD9F80000F4
:1050800010B10368DB689847D9F8000010B10368D5
:105090001B689847DFF8C080D8F8000010B103689B
:1050A0005B699847D7F83C0110B103685B68984783
:1050B000D8F8000010B103681B689847D7F83C0186
:1050C00010B103689B689847F068002103685B6A29
:1050D000984714210446FFF7CFFEB068002103680B
:1050E0005B6A9847054600F0B1FE706800210368CE
:1050F0005B6A98470646294600F086FE331DC7F8CE
:105100003C612846C9F80040C8F80050CAF8003091
:105110002B68C6F808A0DB68EE6398473368304612
:105120001B689847214628461DF020FD236820462D
:105130001B699847236820465B69BDE8F04718471C
:1051400044780308037D0308AC790308F379030866
:10515000967A0308A09E01209C9E0120406A704719
:10516000806A704770478B88C069DB0A0A6850F80C
:1051700023001044704710B50446BAB1107B68B1E3
:10518000537BD27A1B0203F4E0631A43236A03EBD6
:1051900082031A888A4202D193F9020010BD05D811
:1051A0000138043380B20028F3D1F7E70020F5E797
:1051B00010B504462C212EF0A2FC204610BD0000A4
:1051C00030B58BB00446BDF860500895BDF85C5012
:1051D00007959DF8505006959DF84C5005959DF803
:1051E000485004959DF8445003959DF84050029511
:1051F0009DF83C500195BDF8385000951DF020F801
:10520000064B20462360159BE361169B2362199B86
:1052100063621A9BA3620BB030BD00BF347F0308EA
:105220007047704710B504464FF488712EF067FC44
:10523000204610BDD0F80C310133B42B10B5044614
:10524000C0F80C3106D11BF03FFBFFF7E5FD002352
:10525000C4F80C3110BD00002DE9F04F044689B0B0
:1052600000251DF0D7FAA2465B4BE56304F16C07FD
:105270004AF8403B4FF48078584B4FF6FF7606A92A
:10528000A4F8648038462566A5664FF4F07BADF837
:10529000186004F19809C4E91035FF23C4E91255D8
:1052A00084F86630C4E91455C4E9165517F0FCFDBE
:1052B0004B4BA4F8C46004F1E006C4F8983006A98A
:1052C000484B3046A4F8BC8004F10408C4F8C03050
:1052D0004FF47F03C4F8C850C4F8CC304FF0FF330C
:1052E000A4F8D050C4F8D450ADF81830C4E936351D
:1052F000C4E92755C4E92955C4E92B55C4E92D55FE
:1053000017F0D2FD4FF448732A4629465046C4F898
:105310000C51CDF800B0FEF7EBFE4FF07F42514646
:105320004046A26613F0B2FD06A93846ADF8185003
:1053300018F0BAFE4FF448732A4629463846CDF88D
:1053400000B0FEF7D5FE2946384617F068FD39460D
:10535000404602AF13F09AFD484640F24D124FF41A
:10536000A271FEF786FE4FF07F4249463846C4F8E8
:10537000C820A4F8CC5018F041F804F1D40397E801
:10538000070083E80700174B06A948460693102339
:10539000ADF81C3018F0CCFA4946404613F076FDC3
:1053A0000C2306A93046ADF8183018F07DFE4FF4F6
:1053B0008873372230464FF484710093FEF798FECD
:1053C0002946304617F02BFD4046314613F05EFD6E
:1053D000204609B0BDE8F08F9C7F0308C8AC0308E5
:1053E00038AC0308E875030870470176704781827E
:1053F000C28270477047704730B444680346C26841
:105400009B68551004EB6200D20748BF625930BC5C
:1054100048BFD35818470346406830B19A681AB954
:10542000D86800F0010070470120704710B50446AD
:1054300020212EF064FB204610BD10B5044610213B
:105440002EF05DFB204610BD70B50B880546044666
:1054500025F8043F28461EF0A5FDA07128461EF041
:105460002BFC064628461EF05BFC0023E08104F17D
:105470000800A360A6811BF073F828461EF00EFDFD
:10548000206170BD034B10B50446036019F008FDA0
:10549000204610BD04800308064B10B50446036087
:1054A00019F0FEFC43F22C3120462EF028FB20465A
:1054B00010BD00BF048003089830884208B505D1AC
:1054C0001BF002FABDE80840FFF7C6BC08BD0000AB
:1054D0002DE9F04F04468FB000251DF09BF9A24640
:1054E0007D4B04F16C0904F198084FF6FF7BE563EE
:1054F0004AF8403B5046FEF721FE04F5A0770CA980
:105500004846ADF830B017F0CFFC404604F5EC76D5
:10551000FEF74AFE3846FEF725FE04F5C673184628
:105520000293FEF71FFE304618F0A0FA04F55E73F2
:10553000ADF830B004F1040B18460593FDF7D0F92F
:10554000664B0CA904F56070C4F88033BDF83030A8
:1055500084F88653A4F8843384F89853C4E9E25558
:10556000C4E9E455FFF770FF5D4BC4F8783324338A
:10557000C4F8803304F5697318460393FEF7F2FD0F
:1055800004F57C7318460493FEF7ECFD04F54053D4
:10559000544A42F6E06104F23C40C3E9C724524A4F
:1055A000C3E9C92519F072FC4FF4F0732A4650463E
:1055B000294600934FF44873FEF79AFD4FF07F435E
:1055C00051465846A3664FF0480A13F05FFC0CA9F9
:1055D0004846ADF8305018F067FD4FF4F0732A4696
:1055E0002946484600934FF44873FEF781FD29464B
:1055F000484617F014FC4946584613F047FC294624
:105600004D232A4604F1CC00CDF800A0FEF770FD32
:105610000723364A4046A4F8FC30354BC4F8003125
:1056200003F54C533333C4F80431324BC4E94223FD
:10563000D4F89830D3F88C3098474FF00D0340469B
:105640000CAA0BA9ADF82C30ADF83030FEF71EFDDA
:105650004FF00A1340F2811240464FF42D71C4F806
:10566000183104F54C531C33C4F8C8304D23CDF821
:1056700000A0FEF73DFD414658460DF1180813F015
:1056800005FC3F2226213846FEF7F3FC4FF07F430E
:1056900039464046C4F87031D4F84031A4F874510A
:1056A000D3F884309847DFF864A004F5BE7398E817
:1056B000070083E80700DAF800302BB90E4B6021B1
:1056C0000E4A0F482EF094FD0E4B1B880C2B1FD852
:1056D0000D4B6121094AF4E704800308D07F0308D9
:1056E00060A80308EC7F0308B95400080AC6FAFF53
:1056F000996600FF996633FF287403082A7503082A
:10570000A5740308B49E0120EC740308B09E012028
:10571000DFF850920C21D9F8000000F08DFAC4F89F
:105720008801384618F0E4F88C4B0CA938460C93E5
:105730000F23ADF8343018F0FBF83946584613F013
:10574000A5FB882226210298FEF793FC4FF07F42AA
:10575000D4F88C3140460299D3F88430C4F8BC2187
:10576000A4F8C051984704F5E47398E8070083E86B
:105770000700DAF80030002BA0D0794F3B880D2BC2
:10578000A6D90D21D9F8000000F056FAC4F8D401CA
:105790000298012718F0ACF8704B0CA902980C93F2
:1057A0000E23ADF8343018F0C3F80299584613F0C0
:1057B0006DFB0CA93046ADF8307013F0F9FAB82340
:1057C000192240F2222100933046FEF791FC5C2220
:1057D0003046114618F023FA7A226FF076013046EF
:1057E00018F0A2FA2B46642229463046009513F0A1
:1057F0008CF93221304618F041FA08223523032172
:10580000304618F0F7F93946304618F08FF9394626
:10581000304618F08EF93946304618F08DF90223DB
:105820000CA90598ADF8303015F064FB304618F03F
:1058300086F9059A8262304618F081F94FF41E63AA
:105840004363304618F07BF94FF41C630364304621
:1058500018F075F9B42116F08BFC13226C23304636
:1058600011460093922318F039F93146584613F047
:105870000DFBD12226210398FEF7FBFB4FF07F4260
:10588000D4F8A43340460399D3F88430C4F8D42321
:10589000A4F8D853984704F5787398E8070083E88C
:1058A0000700DAF80030002B3FF408AF2C4F3B889C
:1058B0000A2B7FF60DAF0A21D9F8000000F0BCF9E1
:1058C000C4F8EC03039818F013F8244E0B230CA92A
:1058D0000398ADF834300C9618F02AF8039958461E
:1058E00013F0D4FA40F2191226210498FEF7C1FBF6
:1058F0004FF07F4304994046C4F82034D4F8F03385
:10590000A4F82454D3F88430984704F22C4398E840
:10591000070083E80700DAF80030002B3FF4CEAE32
:105920003B88082B7FF6D4AE0821D9F8000000F0A0
:1059300083F9C4F83804049817F0DAFF09230CA996
:105940000498ADF834300C9617F0F2FF58460499DD
:1059500013F09CFA20460FB0BDE8F08FE8750308FD
:10596000B49E0120BC9E01207047000030B5164D4A
:105970008FB02C68BFF35B8F14F0010420D1284650
:105980002EF0BFF8E0B13F23012210490993104BDC
:1059900010480893104B0A940594CDE9064304235C
:1059A000CDE903320A23CDE90B440093CDE901444C
:1059B000FFF706FC09482EF039FC28462EF0ADF81A
:1059C00004480FB030BD00BFC8570020C41A109063
:1059D000A4B60308CC57002090B903086959000801
:1059E0007047000030B5164D8FB02C68BFF35B8F49
:1059F00014F0010420D128462EF083F8E0B13F23B3
:105A0000012210490993104B10480893104B0A9437
:105A10000594CDE906430423CDE903321423CDE9EF
:105A20000B440093CDE90144FFF7CAFB09482EF06F
:105A3000FDFB28462EF071F804480FB030BD00BFC2
:105A4000F8570020D41A1090A8B60308FC5700207D
:105A500094B90308E15900087047000030B5174DAC
:105A60008FB02C68BFF35B8F14F0010423D128465C
:105A70002EF047F8F8B13F23012211490993114B49
:105A800011480893114B0A9407930223CDE905337B
:105A90000423CDE9033228235F2200933023CDE98C
:105AA0000B44CDE90144FFF78BFB09482EF0BEFB08
:105AB00028462EF032F804480FB030BD2858002098
:105AC000E41A1090ACB603082C58002098B90308CB
:105AD000595A000800207047002070470EB403B5E3
